{
  "_format": "hh-sol-artifact-1",
  "contractName": "FarmDAO",
  "sourceName": "contracts/Dao.sol",
  "abi": [
    {
      "inputs": [
        {
          "internalType": "string",
          "name": "_title",
          "type": "string"
        }
      ],
      "stateMutability": "nonpayable",
      "type": "constructor"
    },
    {
      "anonymous": false,
      "inputs": [
        {
          "indexed": false,
          "internalType": "address",
          "name": "daoAddress",
          "type": "address"
        }
      ],
      "name": "DaoCreated",
      "type": "event"
    },
    {
      "anonymous": false,
      "inputs": [
        {
          "indexed": false,
          "internalType": "address",
          "name": "investor",
          "type": "address"
        },
        {
          "indexed": false,
          "internalType": "uint256",
          "name": "amount",
          "type": "uint256"
        }
      ],
      "name": "InvestmentAdded",
      "type": "event"
    },
    {
      "inputs": [
        {
          "internalType": "uint256",
          "name": "daoId",
          "type": "uint256"
        }
      ],
      "name": "addInvestment",
      "outputs": [],
      "stateMutability": "payable",
      "type": "function"
    },
    {
      "inputs": [
        {
          "internalType": "address",
          "name": "_farmer1",
          "type": "address"
        },
        {
          "internalType": "address",
          "name": "_farmer2",
          "type": "address"
        },
        {
          "internalType": "string",
          "name": "_description",
          "type": "string"
        },
        {
          "internalType": "string",
          "name": "_name",
          "type": "string"
        }
      ],
      "name": "createDao",
      "outputs": [],
      "stateMutability": "nonpayable",
      "type": "function"
    },
    {
      "inputs": [],
      "name": "daoCreated",
      "outputs": [
        {
          "internalType": "bool",
          "name": "",
          "type": "bool"
        }
      ],
      "stateMutability": "view",
      "type": "function"
    },
    {
      "inputs": [
        {
          "internalType": "address",
          "name": "",
          "type": "address"
        },
        {
          "internalType": "uint256",
          "name": "",
          "type": "uint256"
        }
      ],
      "name": "daoFarmers",
      "outputs": [
        {
          "internalType": "address",
          "name": "",
          "type": "address"
        }
      ],
      "stateMutability": "view",
      "type": "function"
    },
    {
      "inputs": [],
      "name": "daoID",
      "outputs": [
        {
          "internalType": "uint256",
          "name": "",
          "type": "uint256"
        }
      ],
      "stateMutability": "view",
      "type": "function"
    },
    {
      "inputs": [
        {
          "internalType": "uint256",
          "name": "",
          "type": "uint256"
        }
      ],
      "name": "daos",
      "outputs": [
        {
          "internalType": "address",
          "name": "address1",
          "type": "address"
        },
        {
          "internalType": "address",
          "name": "address2",
          "type": "address"
        },
        {
          "internalType": "string",
          "name": "description",
          "type": "string"
        },
        {
          "internalType": "string",
          "name": "name",
          "type": "string"
        },
        {
          "internalType": "uint256",
          "name": "id",
          "type": "uint256"
        },
        {
          "internalType": "uint256",
          "name": "amountInvested",
          "type": "uint256"
        }
      ],
      "stateMutability": "view",
      "type": "function"
    },
    {
      "inputs": [],
      "name": "farmer1",
      "outputs": [
        {
          "internalType": "address",
          "name": "",
          "type": "address"
        }
      ],
      "stateMutability": "view",
      "type": "function"
    },
    {
      "inputs": [],
      "name": "farmer2",
      "outputs": [
        {
          "internalType": "address",
          "name": "",
          "type": "address"
        }
      ],
      "stateMutability": "view",
      "type": "function"
    },
    {
      "inputs": [],
      "name": "getAllDaos",
      "outputs": [
        {
          "components": [
            {
              "internalType": "address",
              "name": "address1",
              "type": "address"
            },
            {
              "internalType": "address",
              "name": "address2",
              "type": "address"
            },
            {
              "internalType": "string",
              "name": "description",
              "type": "string"
            },
            {
              "internalType": "string",
              "name": "name",
              "type": "string"
            },
            {
              "internalType": "uint256",
              "name": "id",
              "type": "uint256"
            },
            {
              "internalType": "uint256",
              "name": "amountInvested",
              "type": "uint256"
            }
          ],
          "internalType": "struct FarmDAO.Dao[]",
          "name": "",
          "type": "tuple[]"
        }
      ],
      "stateMutability": "view",
      "type": "function"
    },
    {
      "inputs": [
        {
          "internalType": "uint256",
          "name": "daoId",
          "type": "uint256"
        }
      ],
      "name": "getTotalInvestment",
      "outputs": [
        {
          "internalType": "uint256",
          "name": "",
          "type": "uint256"
        }
      ],
      "stateMutability": "view",
      "type": "function"
    },
    {
      "inputs": [
        {
          "internalType": "address",
          "name": "",
          "type": "address"
        }
      ],
      "name": "investments",
      "outputs": [
        {
          "internalType": "uint256",
          "name": "",
          "type": "uint256"
        }
      ],
      "stateMutability": "view",
      "type": "function"
    },
    {
      "inputs": [],
      "name": "minimumInvestment",
      "outputs": [
        {
          "internalType": "uint256",
          "name": "",
          "type": "uint256"
        }
      ],
      "stateMutability": "view",
      "type": "function"
    },
    {
      "inputs": [],
      "name": "owner",
      "outputs": [
        {
          "internalType": "address",
          "name": "",
          "type": "address"
        }
      ],
      "stateMutability": "view",
      "type": "function"
    },
    {
      "inputs": [],
      "name": "title",
      "outputs": [
        {
          "internalType": "string",
          "name": "",
          "type": "string"
        }
      ],
      "stateMutability": "view",
      "type": "function"
    },
    {
      "inputs": [
        {
          "internalType": "uint256",
          "name": "",
          "type": "uint256"
        }
      ],
      "name": "totalDAOs",
      "outputs": [
        {
          "internalType": "address",
          "name": "address1",
          "type": "address"
        },
        {
          "internalType": "address",
          "name": "address2",
          "type": "address"
        },
        {
          "internalType": "string",
          "name": "description",
          "type": "string"
        },
        {
          "internalType": "string",
          "name": "name",
          "type": "string"
        },
        {
          "internalType": "uint256",
          "name": "id",
          "type": "uint256"
        },
        {
          "internalType": "uint256",
          "name": "amountInvested",
          "type": "uint256"
        }
      ],
      "stateMutability": "view",
      "type": "function"
    },
    {
      "inputs": [],
      "name": "totalInvestment",
      "outputs": [
        {
          "internalType": "uint256",
          "name": "",
          "type": "uint256"
        }
      ],
      "stateMutability": "view",
      "type": "function"
    }
  ],
  "bytecode": "0x60806040523480156200001157600080fd5b506040516200246e3803806200246e8339818101604052810190620000379190620001e3565b80600090816200004891906200047f565b505062000566565b6000604051905090565b600080fd5b600080fd5b600080fd5b600080fd5b6000601f19601f8301169050919050565b7f4e487b7100000000000000000000000000000000000000000000000000000000600052604160045260246000fd5b620000b9826200006e565b810181811067ffffffffffffffff82111715620000db57620000da6200007f565b5b80604052505050565b6000620000f062000050565b9050620000fe8282620000ae565b919050565b600067ffffffffffffffff8211156200012157620001206200007f565b5b6200012c826200006e565b9050602081019050919050565b60005b83811015620001595780820151818401526020810190506200013c565b60008484015250505050565b60006200017c620001768462000103565b620000e4565b9050828152602081018484840111156200019b576200019a62000069565b5b620001a884828562000139565b509392505050565b600082601f830112620001c857620001c762000064565b5b8151620001da84826020860162000165565b91505092915050565b600060208284031215620001fc57620001fb6200005a565b5b600082015167ffffffffffffffff8111156200021d576200021c6200005f565b5b6200022b84828501620001b0565b91505092915050565b600081519050919050565b7f4e487b7100000000000000000000000000000000000000000000000000000000600052602260045260246000fd5b600060028204905060018216806200028757607f821691505b6020821081036200029d576200029c6200023f565b5b50919050565b60008190508160005260206000209050919050565b60006020601f8301049050919050565b600082821b905092915050565b600060088302620003077fffffffffffffffffffffffffffffffffffffffffffffffffffffffffffffffff82620002c8565b620003138683620002c8565b95508019841693508086168417925050509392505050565b6000819050919050565b6000819050919050565b6000620003606200035a62000354846200032b565b62000335565b6200032b565b9050919050565b6000819050919050565b6200037c836200033f565b620003946200038b8262000367565b848454620002d5565b825550505050565b600090565b620003ab6200039c565b620003b881848462000371565b505050565b5b81811015620003e057620003d4600082620003a1565b600181019050620003be565b5050565b601f8211156200042f57620003f981620002a3565b6200040484620002b8565b8101602085101562000414578190505b6200042c6200042385620002b8565b830182620003bd565b50505b505050565b600082821c905092915050565b6000620004546000198460080262000434565b1980831691505092915050565b60006200046f838362000441565b9150826002028217905092915050565b6200048a8262000234565b67ffffffffffffffff811115620004a657620004a56200007f565b5b620004b282546200026e565b620004bf828285620003e4565b600060209050601f831160018114620004f75760008415620004e2578287015190505b620004ee858262000461565b8655506200055e565b601f1984166200050786620002a3565b60005b8281101562000531578489015182556001820191506020850194506020810190506200050a565b868310156200055157848901516200054d601f89168262000441565b8355505b6001600288020188555050505b505050505050565b611ef880620005766000396000f3fe6080604052600436106100f35760003560e01c806396b988621161008a578063ce99886d11610059578063ce99886d1461033a578063d840b4df14610365578063f3f0cd91146103a7578063f441a20f146103d2576100f3565b806396b9886214610265578063aa5b6d4c146102a2578063b3afc439146102cd578063ccbbd260146102f8576100f3565b80634c54114c116100c65780634c54114c146101b6578063574eb033146101e1578063610c8ced1461021e5780638da5cb5b1461023a576100f3565b806310ea13df146100f85780632b925b251461012357806334422a471461014e5780634a79d50c1461018b575b600080fd5b34801561010457600080fd5b5061010d6103fb565b60405161011a9190611273565b60405180910390f35b34801561012f57600080fd5b50610138610401565b6040516101459190611273565b60405180910390f35b34801561015a57600080fd5b50610175600480360381019061017091906112ce565b610407565b6040516101829190611273565b60405180910390f35b34801561019757600080fd5b506101a0610427565b6040516101ad919061138b565b60405180910390f35b3480156101c257600080fd5b506101cb6104b5565b6040516101d89190611273565b60405180910390f35b3480156101ed57600080fd5b506102086004803603810190610203919061140b565b6104bb565b604051610215919061145a565b60405180910390f35b610238600480360381019061023391906112ce565b610509565b005b34801561024657600080fd5b5061024f610787565b60405161025c919061145a565b60405180910390f35b34801561027157600080fd5b5061028c60048036038101906102879190611475565b6107ad565b6040516102999190611273565b60405180910390f35b3480156102ae57600080fd5b506102b76107c5565b6040516102c4919061165c565b60405180910390f35b3480156102d957600080fd5b506102e2610a78565b6040516102ef9190611699565b60405180910390f35b34801561030457600080fd5b5061031f600480360381019061031a91906112ce565b610a8b565b604051610331969594939291906116b4565b60405180910390f35b34801561034657600080fd5b5061034f610c17565b60405161035c919061145a565b60405180910390f35b34801561037157600080fd5b5061038c600480360381019061038791906112ce565b610c3d565b60405161039e969594939291906116b4565b60405180910390f35b3480156103b357600080fd5b506103bc610dd9565b6040516103c9919061145a565b60405180910390f35b3480156103de57600080fd5b506103f960048036038101906103f49190611858565b610dff565b005b60045481565b60055481565b6000600b6000838152602001908152602001600020600501549050919050565b6000805461043490611926565b80601f016020809104026020016040519081016040528092919081815260200182805461046090611926565b80156104ad5780601f10610482576101008083540402835291602001916104ad565b820191906000526020600020905b81548152906001019060200180831161049057829003601f168201915b505050505081565b60085481565b600a60205281600052604060002081815481106104d757600080fd5b906000526020600020016000915091509054906101000a900473ffffffffffffffffffffffffffffffffffffffff1681565b60055434101561054e576040517f08c379a0000000000000000000000000000000000000000000000000000000008152600401610545906119c9565b60405180910390fd5b6000600660003373ffffffffffffffffffffffffffffffffffffffff1673ffffffffffffffffffffffffffffffffffffffff16815260200190815260200160002054146105d0576040517f08c379a00000000000000000000000000000000000000000000000000000000081526004016105c790611a5b565b60405180910390fd5b600160009054906101000a900473ffffffffffffffffffffffffffffffffffffffff1673ffffffffffffffffffffffffffffffffffffffff163373ffffffffffffffffffffffffffffffffffffffff161415801561067c5750600260009054906101000a900473ffffffffffffffffffffffffffffffffffffffff1673ffffffffffffffffffffffffffffffffffffffff163373ffffffffffffffffffffffffffffffffffffffff1614155b6106bb576040517f08c379a00000000000000000000000000000000000000000000000000000000081526004016106b290611aed565b60405180910390fd5b6000600b60008381526020019081526020016000209050348160050160008282546106e69190611b3c565b9250508190555034600660003373ffffffffffffffffffffffffffffffffffffffff1673ffffffffffffffffffffffffffffffffffffffff1681526020019081526020016000208190555034600460008282546107439190611b3c565b925050819055507f0e9450c60b5852553342ccda7c9307802902542d41f8d2a9d1d4e0d13e97355c333460405161077b929190611b70565b60405180910390a15050565b600360009054906101000a900473ffffffffffffffffffffffffffffffffffffffff1681565b60066020528060005260406000206000915090505481565b6060600060085467ffffffffffffffff8111156107e5576107e461172d565b5b60405190808252806020026020018201604052801561081e57816020015b61080b6111f8565b8152602001906001900390816108035790505b5090506000600190505b6008548111610a7057600b60008281526020019081526020016000206040518060c00160405290816000820160009054906101000a900473ffffffffffffffffffffffffffffffffffffffff1673ffffffffffffffffffffffffffffffffffffffff1673ffffffffffffffffffffffffffffffffffffffff1681526020016001820160009054906101000a900473ffffffffffffffffffffffffffffffffffffffff1673ffffffffffffffffffffffffffffffffffffffff1673ffffffffffffffffffffffffffffffffffffffff16815260200160028201805461090b90611926565b80601f016020809104026020016040519081016040528092919081815260200182805461093790611926565b80156109845780601f1061095957610100808354040283529160200191610984565b820191906000526020600020905b81548152906001019060200180831161096757829003601f168201915b5050505050815260200160038201805461099d90611926565b80601f01602080910402602001604051908101604052809291908181526020018280546109c990611926565b8015610a165780601f106109eb57610100808354040283529160200191610a16565b820191906000526020600020905b8154815290600101906020018083116109f957829003601f168201915b505050505081526020016004820154815260200160058201548152505082600183610a419190611b99565b81518110610a5257610a51611bcd565b5b60200260200101819052508080610a6890611bfc565b915050610828565b508091505090565b600760009054906101000a900460ff1681565b600b6020528060005260406000206000915090508060000160009054906101000a900473ffffffffffffffffffffffffffffffffffffffff16908060010160009054906101000a900473ffffffffffffffffffffffffffffffffffffffff1690806002018054610afa90611926565b80601f0160208091040260200160405190810160405280929190818152602001828054610b2690611926565b8015610b735780601f10610b4857610100808354040283529160200191610b73565b820191906000526020600020905b815481529060010190602001808311610b5657829003601f168201915b505050505090806003018054610b8890611926565b80601f0160208091040260200160405190810160405280929190818152602001828054610bb490611926565b8015610c015780601f10610bd657610100808354040283529160200191610c01565b820191906000526020600020905b815481529060010190602001808311610be457829003601f168201915b5050505050908060040154908060050154905086565b600160009054906101000a900473ffffffffffffffffffffffffffffffffffffffff1681565b60098181548110610c4d57600080fd5b90600052602060002090600602016000915090508060000160009054906101000a900473ffffffffffffffffffffffffffffffffffffffff16908060010160009054906101000a900473ffffffffffffffffffffffffffffffffffffffff1690806002018054610cbc90611926565b80601f0160208091040260200160405190810160405280929190818152602001828054610ce890611926565b8015610d355780601f10610d0a57610100808354040283529160200191610d35565b820191906000526020600020905b815481529060010190602001808311610d1857829003601f168201915b505050505090806003018054610d4a90611926565b80601f0160208091040260200160405190810160405280929190818152602001828054610d7690611926565b8015610dc35780601f10610d9857610100808354040283529160200191610dc3565b820191906000526020600020905b815481529060010190602001808311610da657829003601f168201915b5050505050908060040154908060050154905086565b600260009054906101000a900473ffffffffffffffffffffffffffffffffffffffff1681565b60086000815480929190610e1290611bfc565b9190505550600080600854905060006040518060c001604052808873ffffffffffffffffffffffffffffffffffffffff1681526020018773ffffffffffffffffffffffffffffffffffffffff16815260200186815260200185815260200183815260200184815250905080600b600084815260200190815260200160002060008201518160000160006101000a81548173ffffffffffffffffffffffffffffffffffffffff021916908373ffffffffffffffffffffffffffffffffffffffff16021790555060208201518160010160006101000a81548173ffffffffffffffffffffffffffffffffffffffff021916908373ffffffffffffffffffffffffffffffffffffffff1602179055506040820151816002019081610f339190611df0565b506060820151816003019081610f499190611df0565b506080820151816004015560a08201518160050155905050600981908060018154018082558091505060019003906000526020600020906006020160009091909190915060008201518160000160006101000a81548173ffffffffffffffffffffffffffffffffffffffff021916908373ffffffffffffffffffffffffffffffffffffffff16021790555060208201518160010160006101000a81548173ffffffffffffffffffffffffffffffffffffffff021916908373ffffffffffffffffffffffffffffffffffffffff16021790555060408201518160020190816110309190611df0565b5060608201518160030190816110469190611df0565b506080820151816004015560a082015181600501555050600a60003073ffffffffffffffffffffffffffffffffffffffff1673ffffffffffffffffffffffffffffffffffffffff168152602001908152602001600020879080600181540180825580915050600190039060005260206000200160009091909190916101000a81548173ffffffffffffffffffffffffffffffffffffffff021916908373ffffffffffffffffffffffffffffffffffffffff160217905550600a60003073ffffffffffffffffffffffffffffffffffffffff1673ffffffffffffffffffffffffffffffffffffffff168152602001908152602001600020869080600181540180825580915050600190039060005260206000200160009091909190916101000a81548173ffffffffffffffffffffffffffffffffffffffff021916908373ffffffffffffffffffffffffffffffffffffffff1602179055506001600760006101000a81548160ff0219169083151502179055507f87fc1796dbc913ab997ce574688bcad88f5eb317373be9ec71de2bde33e5c830306040516111e7919061145a565b60405180910390a150505050505050565b6040518060c00160405280600073ffffffffffffffffffffffffffffffffffffffff168152602001600073ffffffffffffffffffffffffffffffffffffffff168152602001606081526020016060815260200160008152602001600081525090565b6000819050919050565b61126d8161125a565b82525050565b60006020820190506112886000830184611264565b92915050565b6000604051905090565b600080fd5b600080fd5b6112ab8161125a565b81146112b657600080fd5b50565b6000813590506112c8816112a2565b92915050565b6000602082840312156112e4576112e3611298565b5b60006112f2848285016112b9565b91505092915050565b600081519050919050565b600082825260208201905092915050565b60005b8381101561133557808201518184015260208101905061131a565b60008484015250505050565b6000601f19601f8301169050919050565b600061135d826112fb565b6113678185611306565b9350611377818560208601611317565b61138081611341565b840191505092915050565b600060208201905081810360008301526113a58184611352565b905092915050565b600073ffffffffffffffffffffffffffffffffffffffff82169050919050565b60006113d8826113ad565b9050919050565b6113e8816113cd565b81146113f357600080fd5b50565b600081359050611405816113df565b92915050565b6000806040838503121561142257611421611298565b5b6000611430858286016113f6565b9250506020611441858286016112b9565b9150509250929050565b611454816113cd565b82525050565b600060208201905061146f600083018461144b565b92915050565b60006020828403121561148b5761148a611298565b5b6000611499848285016113f6565b91505092915050565b600081519050919050565b600082825260208201905092915050565b6000819050602082019050919050565b6114d7816113cd565b82525050565b600082825260208201905092915050565b60006114f9826112fb565b61150381856114dd565b9350611513818560208601611317565b61151c81611341565b840191505092915050565b6115308161125a565b82525050565b600060c08301600083015161154e60008601826114ce565b50602083015161156160208601826114ce565b506040830151848203604086015261157982826114ee565b9150506060830151848203606086015261159382826114ee565b91505060808301516115a86080860182611527565b5060a08301516115bb60a0860182611527565b508091505092915050565b60006115d28383611536565b905092915050565b6000602082019050919050565b60006115f2826114a2565b6115fc81856114ad565b93508360208202850161160e856114be565b8060005b8581101561164a578484038952815161162b85826115c6565b9450611636836115da565b925060208a01995050600181019050611612565b50829750879550505050505092915050565b6000602082019050818103600083015261167681846115e7565b905092915050565b60008115159050919050565b6116938161167e565b82525050565b60006020820190506116ae600083018461168a565b92915050565b600060c0820190506116c9600083018961144b565b6116d6602083018861144b565b81810360408301526116e88187611352565b905081810360608301526116fc8186611352565b905061170b6080830185611264565b61171860a0830184611264565b979650505050505050565b600080fd5b600080fd5b7f4e487b7100000000000000000000000000000000000000000000000000000000600052604160045260246000fd5b61176582611341565b810181811067ffffffffffffffff821117156117845761178361172d565b5b80604052505050565b600061179761128e565b90506117a3828261175c565b919050565b600067ffffffffffffffff8211156117c3576117c261172d565b5b6117cc82611341565b9050602081019050919050565b82818337600083830152505050565b60006117fb6117f6846117a8565b61178d565b90508281526020810184848401111561181757611816611728565b5b6118228482856117d9565b509392505050565b600082601f83011261183f5761183e611723565b5b813561184f8482602086016117e8565b91505092915050565b6000806000806080858703121561187257611871611298565b5b6000611880878288016113f6565b9450506020611891878288016113f6565b935050604085013567ffffffffffffffff8111156118b2576118b161129d565b5b6118be8782880161182a565b925050606085013567ffffffffffffffff8111156118df576118de61129d565b5b6118eb8782880161182a565b91505092959194509250565b7f4e487b7100000000000000000000000000000000000000000000000000000000600052602260045260246000fd5b6000600282049050600182168061193e57607f821691505b602082108103611951576119506118f7565b5b50919050565b7f496e766573746d656e7420616d6f756e742069732062656c6f7720746865206d60008201527f696e696d756d2072657175697265642e00000000000000000000000000000000602082015250565b60006119b3603083611306565b91506119be82611957565b604082019050919050565b600060208201905081810360008301526119e2816119a6565b9050919050565b7f496e766573746f722068617320616c726561647920636f6e747269627574656460008201527f20746f207468652066756e642e00000000000000000000000000000000000000602082015250565b6000611a45602d83611306565b9150611a50826119e9565b604082019050919050565b60006020820190508181036000830152611a7481611a38565b9050919050565b7f4661726d6572732063616e6e6f7420696e7665737420696e207468652066756e60008201527f642e000000000000000000000000000000000000000000000000000000000000602082015250565b6000611ad7602283611306565b9150611ae282611a7b565b604082019050919050565b60006020820190508181036000830152611b0681611aca565b9050919050565b7f4e487b7100000000000000000000000000000000000000000000000000000000600052601160045260246000fd5b6000611b478261125a565b9150611b528361125a565b9250828201905080821115611b6a57611b69611b0d565b5b92915050565b6000604082019050611b85600083018561144b565b611b926020830184611264565b9392505050565b6000611ba48261125a565b9150611baf8361125a565b9250828203905081811115611bc757611bc6611b0d565b5b92915050565b7f4e487b7100000000000000000000000000000000000000000000000000000000600052603260045260246000fd5b6000611c078261125a565b91507fffffffffffffffffffffffffffffffffffffffffffffffffffffffffffffffff8203611c3957611c38611b0d565b5b600182019050919050565b60008190508160005260206000209050919050565b60006020601f8301049050919050565b600082821b905092915050565b600060088302611ca67fffffffffffffffffffffffffffffffffffffffffffffffffffffffffffffffff82611c69565b611cb08683611c69565b95508019841693508086168417925050509392505050565b6000819050919050565b6000611ced611ce8611ce38461125a565b611cc8565b61125a565b9050919050565b6000819050919050565b611d0783611cd2565b611d1b611d1382611cf4565b848454611c76565b825550505050565b600090565b611d30611d23565b611d3b818484611cfe565b505050565b5b81811015611d5f57611d54600082611d28565b600181019050611d41565b5050565b601f821115611da457611d7581611c44565b611d7e84611c59565b81016020851015611d8d578190505b611da1611d9985611c59565b830182611d40565b50505b505050565b600082821c905092915050565b6000611dc760001984600802611da9565b1980831691505092915050565b6000611de08383611db6565b9150826002028217905092915050565b611df9826112fb565b67ffffffffffffffff811115611e1257611e1161172d565b5b611e1c8254611926565b611e27828285611d63565b600060209050601f831160018114611e5a5760008415611e48578287015190505b611e528582611dd4565b865550611eba565b601f198416611e6886611c44565b60005b82811015611e9057848901518255600182019150602085019450602081019050611e6b565b86831015611ead5784890151611ea9601f891682611db6565b8355505b6001600288020188555050505b50505050505056fea264697066735822122009f8265c6527bfff3bb9f29b1e50fccbb6ad25481556053571a9ae02710ccbed64736f6c63430008130033",
  "linkReferences": {},
  "deployedLinkReferences": {}
}