{
  "_format": "hh-sol-artifact-1",
  "contractName": "FarmDAO",
  "sourceName": "contracts/Dao.sol",
  "abi": [
    {
      "inputs": [
        {
          "internalType": "string",
          "name": "_title",
          "type": "string"
        }
      ],
      "stateMutability": "nonpayable",
      "type": "constructor"
    },
    {
      "anonymous": false,
      "inputs": [
        {
          "indexed": false,
          "internalType": "address",
          "name": "daoAddress",
          "type": "address"
        }
      ],
      "name": "DaoCreated",
      "type": "event"
    },
    {
      "anonymous": false,
      "inputs": [
        {
          "indexed": false,
          "internalType": "address",
          "name": "investor",
          "type": "address"
        },
        {
          "indexed": false,
          "internalType": "uint256",
          "name": "amount",
          "type": "uint256"
        }
      ],
      "name": "InvestmentAdded",
      "type": "event"
    },
    {
      "inputs": [
        {
          "internalType": "uint256",
          "name": "daoId",
          "type": "uint256"
        }
      ],
      "name": "addInvestment",
      "outputs": [],
      "stateMutability": "payable",
      "type": "function"
    },
    {
      "inputs": [
        {
          "internalType": "address",
          "name": "_farmer1",
          "type": "address"
        },
        {
          "internalType": "address",
          "name": "_farmer2",
          "type": "address"
        },
        {
          "internalType": "string",
          "name": "_description",
          "type": "string"
        },
        {
          "internalType": "string",
          "name": "_name",
          "type": "string"
        }
      ],
      "name": "createDao",
      "outputs": [],
      "stateMutability": "nonpayable",
      "type": "function"
    },
    {
      "inputs": [],
      "name": "daoCreated",
      "outputs": [
        {
          "internalType": "bool",
          "name": "",
          "type": "bool"
        }
      ],
      "stateMutability": "view",
      "type": "function"
    },
    {
      "inputs": [
        {
          "internalType": "address",
          "name": "",
          "type": "address"
        },
        {
          "internalType": "uint256",
          "name": "",
          "type": "uint256"
        }
      ],
      "name": "daoFarmers",
      "outputs": [
        {
          "internalType": "address",
          "name": "",
          "type": "address"
        }
      ],
      "stateMutability": "view",
      "type": "function"
    },
    {
      "inputs": [],
      "name": "daoID",
      "outputs": [
        {
          "internalType": "uint256",
          "name": "",
          "type": "uint256"
        }
      ],
      "stateMutability": "view",
      "type": "function"
    },
    {
      "inputs": [
        {
          "internalType": "uint256",
          "name": "",
          "type": "uint256"
        }
      ],
      "name": "daos",
      "outputs": [
        {
          "internalType": "address",
          "name": "address1",
          "type": "address"
        },
        {
          "internalType": "address",
          "name": "address2",
          "type": "address"
        },
        {
          "internalType": "string",
          "name": "description",
          "type": "string"
        },
        {
          "internalType": "string",
          "name": "name",
          "type": "string"
        },
        {
          "internalType": "uint256",
          "name": "id",
          "type": "uint256"
        },
        {
          "internalType": "uint256",
          "name": "amountInvested",
          "type": "uint256"
        }
      ],
      "stateMutability": "view",
      "type": "function"
    },
    {
      "inputs": [],
      "name": "farmer1",
      "outputs": [
        {
          "internalType": "address",
          "name": "",
          "type": "address"
        }
      ],
      "stateMutability": "view",
      "type": "function"
    },
    {
      "inputs": [],
      "name": "farmer2",
      "outputs": [
        {
          "internalType": "address",
          "name": "",
          "type": "address"
        }
      ],
      "stateMutability": "view",
      "type": "function"
    },
    {
      "inputs": [],
      "name": "getAllDaos",
      "outputs": [
        {
          "components": [
            {
              "internalType": "address",
              "name": "address1",
              "type": "address"
            },
            {
              "internalType": "address",
              "name": "address2",
              "type": "address"
            },
            {
              "internalType": "string",
              "name": "description",
              "type": "string"
            },
            {
              "internalType": "string",
              "name": "name",
              "type": "string"
            },
            {
              "internalType": "uint256",
              "name": "id",
              "type": "uint256"
            },
            {
              "internalType": "uint256",
              "name": "amountInvested",
              "type": "uint256"
            },
            {
              "internalType": "address[]",
              "name": "investors",
              "type": "address[]"
            }
          ],
          "internalType": "struct FarmDAO.Dao[]",
          "name": "",
          "type": "tuple[]"
        }
      ],
      "stateMutability": "view",
      "type": "function"
    },
    {
      "inputs": [
        {
          "internalType": "uint256",
          "name": "daoId",
          "type": "uint256"
        }
      ],
      "name": "getTotalInvestment",
      "outputs": [
        {
          "internalType": "uint256",
          "name": "",
          "type": "uint256"
        }
      ],
      "stateMutability": "view",
      "type": "function"
    },
    {
      "inputs": [
        {
          "internalType": "address",
          "name": "",
          "type": "address"
        }
      ],
      "name": "investments",
      "outputs": [
        {
          "internalType": "uint256",
          "name": "",
          "type": "uint256"
        }
      ],
      "stateMutability": "view",
      "type": "function"
    },
    {
      "inputs": [],
      "name": "minimumInvestment",
      "outputs": [
        {
          "internalType": "uint256",
          "name": "",
          "type": "uint256"
        }
      ],
      "stateMutability": "view",
      "type": "function"
    },
    {
      "inputs": [],
      "name": "owner",
      "outputs": [
        {
          "internalType": "address",
          "name": "",
          "type": "address"
        }
      ],
      "stateMutability": "view",
      "type": "function"
    },
    {
      "inputs": [],
      "name": "title",
      "outputs": [
        {
          "internalType": "string",
          "name": "",
          "type": "string"
        }
      ],
      "stateMutability": "view",
      "type": "function"
    },
    {
      "inputs": [
        {
          "internalType": "uint256",
          "name": "",
          "type": "uint256"
        }
      ],
      "name": "totalDAOs",
      "outputs": [
        {
          "internalType": "address",
          "name": "address1",
          "type": "address"
        },
        {
          "internalType": "address",
          "name": "address2",
          "type": "address"
        },
        {
          "internalType": "string",
          "name": "description",
          "type": "string"
        },
        {
          "internalType": "string",
          "name": "name",
          "type": "string"
        },
        {
          "internalType": "uint256",
          "name": "id",
          "type": "uint256"
        },
        {
          "internalType": "uint256",
          "name": "amountInvested",
          "type": "uint256"
        }
      ],
      "stateMutability": "view",
      "type": "function"
    },
    {
      "inputs": [],
      "name": "totalInvestment",
      "outputs": [
        {
          "internalType": "uint256",
          "name": "",
          "type": "uint256"
        }
      ],
      "stateMutability": "view",
      "type": "function"
    },
    {
      "inputs": [
        {
          "internalType": "uint256",
          "name": "daoId",
          "type": "uint256"
        }
      ],
      "name": "withDrawDFunds",
      "outputs": [],
      "stateMutability": "nonpayable",
      "type": "function"
    }
  ],
  "bytecode": "0x60806040523480156200001157600080fd5b50604051620027c2380380620027c28339818101604052810190620000379190620001e3565b80600090816200004891906200047f565b505062000566565b6000604051905090565b600080fd5b600080fd5b600080fd5b600080fd5b6000601f19601f8301169050919050565b7f4e487b7100000000000000000000000000000000000000000000000000000000600052604160045260246000fd5b620000b9826200006e565b810181811067ffffffffffffffff82111715620000db57620000da6200007f565b5b80604052505050565b6000620000f062000050565b9050620000fe8282620000ae565b919050565b600067ffffffffffffffff8211156200012157620001206200007f565b5b6200012c826200006e565b9050602081019050919050565b60005b83811015620001595780820151818401526020810190506200013c565b60008484015250505050565b60006200017c620001768462000103565b620000e4565b9050828152602081018484840111156200019b576200019a62000069565b5b620001a884828562000139565b509392505050565b600082601f830112620001c857620001c762000064565b5b8151620001da84826020860162000165565b91505092915050565b600060208284031215620001fc57620001fb6200005a565b5b600082015167ffffffffffffffff8111156200021d576200021c6200005f565b5b6200022b84828501620001b0565b91505092915050565b600081519050919050565b7f4e487b7100000000000000000000000000000000000000000000000000000000600052602260045260246000fd5b600060028204905060018216806200028757607f821691505b6020821081036200029d576200029c6200023f565b5b50919050565b60008190508160005260206000209050919050565b60006020601f8301049050919050565b600082821b905092915050565b600060088302620003077fffffffffffffffffffffffffffffffffffffffffffffffffffffffffffffffff82620002c8565b620003138683620002c8565b95508019841693508086168417925050509392505050565b6000819050919050565b6000819050919050565b6000620003606200035a62000354846200032b565b62000335565b6200032b565b9050919050565b6000819050919050565b6200037c836200033f565b620003946200038b8262000367565b848454620002d5565b825550505050565b600090565b620003ab6200039c565b620003b881848462000371565b505050565b5b81811015620003e057620003d4600082620003a1565b600181019050620003be565b5050565b601f8211156200042f57620003f981620002a3565b6200040484620002b8565b8101602085101562000414578190505b6200042c6200042385620002b8565b830182620003bd565b50505b505050565b600082821c905092915050565b6000620004546000198460080262000434565b1980831691505092915050565b60006200046f838362000441565b9150826002028217905092915050565b6200048a8262000234565b67ffffffffffffffff811115620004a657620004a56200007f565b5b620004b282546200026e565b620004bf828285620003e4565b600060209050601f831160018114620004f75760008415620004e2578287015190505b620004ee858262000461565b8655506200055e565b601f1984166200050786620002a3565b60005b8281101562000531578489015182556001820191506020850194506020810190506200050a565b868310156200055157848901516200054d601f89168262000441565b8355505b6001600288020188555050505b505050505050565b61224c80620005766000396000f3fe6080604052600436106100fe5760003560e01c80638da5cb5b11610095578063ccbbd26011610064578063ccbbd2601461032c578063ce99886d1461036e578063d840b4df14610399578063f3f0cd91146103db578063f441a20f14610406576100fe565b80638da5cb5b1461026e57806396b9886214610299578063aa5b6d4c146102d6578063b3afc43914610301576100fe565b80634a79d50c116100d15780634a79d50c146101bf5780634c54114c146101ea578063574eb03314610215578063610c8ced14610252576100fe565b806310ea13df14610103578063192c86d41461012e5780632b925b251461015757806334422a4714610182575b600080fd5b34801561010f57600080fd5b5061011861042f565b604051610125919061152a565b60405180910390f35b34801561013a57600080fd5b5061015560048036038101906101509190611585565b610435565b005b34801561016357600080fd5b5061016c610640565b604051610179919061152a565b60405180910390f35b34801561018e57600080fd5b506101a960048036038101906101a49190611585565b610646565b6040516101b6919061152a565b60405180910390f35b3480156101cb57600080fd5b506101d4610666565b6040516101e19190611642565b60405180910390f35b3480156101f657600080fd5b506101ff6106f4565b60405161020c919061152a565b60405180910390f35b34801561022157600080fd5b5061023c600480360381019061023791906116c2565b6106fa565b6040516102499190611711565b60405180910390f35b61026c60048036038101906102679190611585565b610748565b005b34801561027a57600080fd5b50610283610879565b6040516102909190611711565b60405180910390f35b3480156102a557600080fd5b506102c060048036038101906102bb919061172c565b61089f565b6040516102cd919061152a565b60405180910390f35b3480156102e257600080fd5b506102eb6108b7565b6040516102f891906119dc565b60405180910390f35b34801561030d57600080fd5b50610316610bf8565b6040516103239190611a19565b60405180910390f35b34801561033857600080fd5b50610353600480360381019061034e9190611585565b610c0b565b60405161036596959493929190611a34565b60405180910390f35b34801561037a57600080fd5b50610383610d97565b6040516103909190611711565b60405180910390f35b3480156103a557600080fd5b506103c060048036038101906103bb9190611585565b610dbd565b6040516103d296959493929190611a34565b60405180910390f35b3480156103e757600080fd5b506103f0610f59565b6040516103fd9190611711565b60405180910390f35b34801561041257600080fd5b5061042d60048036038101906104289190611bd8565b610f7f565b005b60045481565b6000600b600083815260200190815260200160002090508060000160009054906101000a900473ffffffffffffffffffffffffffffffffffffffff1673ffffffffffffffffffffffffffffffffffffffff163373ffffffffffffffffffffffffffffffffffffffff1614806104f957508060010160009054906101000a900473ffffffffffffffffffffffffffffffffffffffff1673ffffffffffffffffffffffffffffffffffffffff163373ffffffffffffffffffffffffffffffffffffffff16145b610538576040517f08c379a000000000000000000000000000000000000000000000000000000000815260040161052f90611cc3565b60405180910390fd5b60008160050154905060008111610584576040517f08c379a000000000000000000000000000000000000000000000000000000000815260040161057b90611d2f565b60405180910390fd5b6000826005018190555060003373ffffffffffffffffffffffffffffffffffffffff16826040516105b490611d80565b60006040518083038185875af1925050503d80600081146105f1576040519150601f19603f3d011682016040523d82523d6000602084013e6105f6565b606091505b505090508061063a576040517f08c379a000000000000000000000000000000000000000000000000000000000815260040161063190611de1565b60405180910390fd5b50505050565b60055481565b6000600b6000838152602001908152602001600020600501549050919050565b6000805461067390611e30565b80601f016020809104026020016040519081016040528092919081815260200182805461069f90611e30565b80156106ec5780601f106106c1576101008083540402835291602001916106ec565b820191906000526020600020905b8154815290600101906020018083116106cf57829003601f168201915b505050505081565b60085481565b600a602052816000526040600020818154811061071657600080fd5b906000526020600020016000915091509054906101000a900473ffffffffffffffffffffffffffffffffffffffff1681565b6000600b60008381526020019081526020016000209050348160050160008282546107739190611e90565b9250508190555080600601339080600181540180825580915050600190039060005260206000200160009091909190916101000a81548173ffffffffffffffffffffffffffffffffffffffff021916908373ffffffffffffffffffffffffffffffffffffffff16021790555034600660003373ffffffffffffffffffffffffffffffffffffffff1673ffffffffffffffffffffffffffffffffffffffff1681526020019081526020016000208190555034600460008282546108359190611e90565b925050819055507f0e9450c60b5852553342ccda7c9307802902542d41f8d2a9d1d4e0d13e97355c333460405161086d929190611ec4565b60405180910390a15050565b600360009054906101000a900473ffffffffffffffffffffffffffffffffffffffff1681565b60066020528060005260406000206000915090505481565b6060600060085467ffffffffffffffff8111156108d7576108d6611aad565b5b60405190808252806020026020018201604052801561091057816020015b6108fd611401565b8152602001906001900390816108f55790505b5090506000600190505b6008548111610bf057600b60008281526020019081526020016000206040518060e00160405290816000820160009054906101000a900473ffffffffffffffffffffffffffffffffffffffff1673ffffffffffffffffffffffffffffffffffffffff1673ffffffffffffffffffffffffffffffffffffffff1681526020016001820160009054906101000a900473ffffffffffffffffffffffffffffffffffffffff1673ffffffffffffffffffffffffffffffffffffffff1673ffffffffffffffffffffffffffffffffffffffff1681526020016002820180546109fd90611e30565b80601f0160208091040260200160405190810160405280929190818152602001828054610a2990611e30565b8015610a765780601f10610a4b57610100808354040283529160200191610a76565b820191906000526020600020905b815481529060010190602001808311610a5957829003601f168201915b50505050508152602001600382018054610a8f90611e30565b80601f0160208091040260200160405190810160405280929190818152602001828054610abb90611e30565b8015610b085780601f10610add57610100808354040283529160200191610b08565b820191906000526020600020905b815481529060010190602001808311610aeb57829003601f168201915b50505050508152602001600482015481526020016005820154815260200160068201805480602002602001604051908101604052809291908181526020018280548015610baa57602002820191906000526020600020905b8160009054906101000a900473ffffffffffffffffffffffffffffffffffffffff1673ffffffffffffffffffffffffffffffffffffffff1681526020019060010190808311610b60575b50505050508152505082600183610bc19190611eed565b81518110610bd257610bd1611f21565b5b60200260200101819052508080610be890611f50565b91505061091a565b508091505090565b600760009054906101000a900460ff1681565b600b6020528060005260406000206000915090508060000160009054906101000a900473ffffffffffffffffffffffffffffffffffffffff16908060010160009054906101000a900473ffffffffffffffffffffffffffffffffffffffff1690806002018054610c7a90611e30565b80601f0160208091040260200160405190810160405280929190818152602001828054610ca690611e30565b8015610cf35780601f10610cc857610100808354040283529160200191610cf3565b820191906000526020600020905b815481529060010190602001808311610cd657829003601f168201915b505050505090806003018054610d0890611e30565b80601f0160208091040260200160405190810160405280929190818152602001828054610d3490611e30565b8015610d815780601f10610d5657610100808354040283529160200191610d81565b820191906000526020600020905b815481529060010190602001808311610d6457829003601f168201915b5050505050908060040154908060050154905086565b600160009054906101000a900473ffffffffffffffffffffffffffffffffffffffff1681565b60098181548110610dcd57600080fd5b90600052602060002090600702016000915090508060000160009054906101000a900473ffffffffffffffffffffffffffffffffffffffff16908060010160009054906101000a900473ffffffffffffffffffffffffffffffffffffffff1690806002018054610e3c90611e30565b80601f0160208091040260200160405190810160405280929190818152602001828054610e6890611e30565b8015610eb55780601f10610e8a57610100808354040283529160200191610eb5565b820191906000526020600020905b815481529060010190602001808311610e9857829003601f168201915b505050505090806003018054610eca90611e30565b80601f0160208091040260200160405190810160405280929190818152602001828054610ef690611e30565b8015610f435780601f10610f1857610100808354040283529160200191610f43565b820191906000526020600020905b815481529060010190602001808311610f2657829003601f168201915b5050505050908060040154908060050154905086565b600260009054906101000a900473ffffffffffffffffffffffffffffffffffffffff1681565b60086000815480929190610f9290611f50565b9190505550600080600854905060006040518060e001604052808873ffffffffffffffffffffffffffffffffffffffff1681526020018773ffffffffffffffffffffffffffffffffffffffff168152602001868152602001858152602001838152602001848152602001600067ffffffffffffffff81111561101757611016611aad565b5b6040519080825280602002602001820160405280156110455781602001602082028036833780820191505090505b50815250905080600b600084815260200190815260200160002060008201518160000160006101000a81548173ffffffffffffffffffffffffffffffffffffffff021916908373ffffffffffffffffffffffffffffffffffffffff16021790555060208201518160010160006101000a81548173ffffffffffffffffffffffffffffffffffffffff021916908373ffffffffffffffffffffffffffffffffffffffff16021790555060408201518160020190816111029190612144565b5060608201518160030190816111189190612144565b506080820151816004015560a0820151816005015560c082015181600601908051906020019061114992919061146a565b50905050600981908060018154018082558091505060019003906000526020600020906007020160009091909190915060008201518160000160006101000a81548173ffffffffffffffffffffffffffffffffffffffff021916908373ffffffffffffffffffffffffffffffffffffffff16021790555060208201518160010160006101000a81548173ffffffffffffffffffffffffffffffffffffffff021916908373ffffffffffffffffffffffffffffffffffffffff160217905550604082015181600201908161121c9190612144565b5060608201518160030190816112329190612144565b506080820151816004015560a0820151816005015560c082015181600601908051906020019061126392919061146a565b505050600a60003073ffffffffffffffffffffffffffffffffffffffff1673ffffffffffffffffffffffffffffffffffffffff168152602001908152602001600020879080600181540180825580915050600190039060005260206000200160009091909190916101000a81548173ffffffffffffffffffffffffffffffffffffffff021916908373ffffffffffffffffffffffffffffffffffffffff160217905550600a60003073ffffffffffffffffffffffffffffffffffffffff1673ffffffffffffffffffffffffffffffffffffffff168152602001908152602001600020869080600181540180825580915050600190039060005260206000200160009091909190916101000a81548173ffffffffffffffffffffffffffffffffffffffff021916908373ffffffffffffffffffffffffffffffffffffffff1602179055506001600760006101000a81548160ff0219169083151502179055507f87fc1796dbc913ab997ce574688bcad88f5eb317373be9ec71de2bde33e5c830306040516113f09190611711565b60405180910390a150505050505050565b6040518060e00160405280600073ffffffffffffffffffffffffffffffffffffffff168152602001600073ffffffffffffffffffffffffffffffffffffffff16815260200160608152602001606081526020016000815260200160008152602001606081525090565b8280548282559060005260206000209081019282156114e3579160200282015b828111156114e25782518260006101000a81548173ffffffffffffffffffffffffffffffffffffffff021916908373ffffffffffffffffffffffffffffffffffffffff1602179055509160200191906001019061148a565b5b5090506114f091906114f4565b5090565b5b8082111561150d5760008160009055506001016114f5565b5090565b6000819050919050565b61152481611511565b82525050565b600060208201905061153f600083018461151b565b92915050565b6000604051905090565b600080fd5b600080fd5b61156281611511565b811461156d57600080fd5b50565b60008135905061157f81611559565b92915050565b60006020828403121561159b5761159a61154f565b5b60006115a984828501611570565b91505092915050565b600081519050919050565b600082825260208201905092915050565b60005b838110156115ec5780820151818401526020810190506115d1565b60008484015250505050565b6000601f19601f8301169050919050565b6000611614826115b2565b61161e81856115bd565b935061162e8185602086016115ce565b611637816115f8565b840191505092915050565b6000602082019050818103600083015261165c8184611609565b905092915050565b600073ffffffffffffffffffffffffffffffffffffffff82169050919050565b600061168f82611664565b9050919050565b61169f81611684565b81146116aa57600080fd5b50565b6000813590506116bc81611696565b92915050565b600080604083850312156116d9576116d861154f565b5b60006116e7858286016116ad565b92505060206116f885828601611570565b9150509250929050565b61170b81611684565b82525050565b60006020820190506117266000830184611702565b92915050565b6000602082840312156117425761174161154f565b5b6000611750848285016116ad565b91505092915050565b600081519050919050565b600082825260208201905092915050565b6000819050602082019050919050565b61178e81611684565b82525050565b600082825260208201905092915050565b60006117b0826115b2565b6117ba8185611794565b93506117ca8185602086016115ce565b6117d3816115f8565b840191505092915050565b6117e781611511565b82525050565b600081519050919050565b600082825260208201905092915050565b6000819050602082019050919050565b60006118258383611785565b60208301905092915050565b6000602082019050919050565b6000611849826117ed565b61185381856117f8565b935061185e83611809565b8060005b8381101561188f5781516118768882611819565b975061188183611831565b925050600181019050611862565b5085935050505092915050565b600060e0830160008301516118b46000860182611785565b5060208301516118c76020860182611785565b50604083015184820360408601526118df82826117a5565b915050606083015184820360608601526118f982826117a5565b915050608083015161190e60808601826117de565b5060a083015161192160a08601826117de565b5060c083015184820360c0860152611939828261183e565b9150508091505092915050565b6000611952838361189c565b905092915050565b6000602082019050919050565b600061197282611759565b61197c8185611764565b93508360208202850161198e85611775565b8060005b858110156119ca57848403895281516119ab8582611946565b94506119b68361195a565b925060208a01995050600181019050611992565b50829750879550505050505092915050565b600060208201905081810360008301526119f68184611967565b905092915050565b60008115159050919050565b611a13816119fe565b82525050565b6000602082019050611a2e6000830184611a0a565b92915050565b600060c082019050611a496000830189611702565b611a566020830188611702565b8181036040830152611a688187611609565b90508181036060830152611a7c8186611609565b9050611a8b608083018561151b565b611a9860a083018461151b565b979650505050505050565b600080fd5b600080fd5b7f4e487b7100000000000000000000000000000000000000000000000000000000600052604160045260246000fd5b611ae5826115f8565b810181811067ffffffffffffffff82111715611b0457611b03611aad565b5b80604052505050565b6000611b17611545565b9050611b238282611adc565b919050565b600067ffffffffffffffff821115611b4357611b42611aad565b5b611b4c826115f8565b9050602081019050919050565b82818337600083830152505050565b6000611b7b611b7684611b28565b611b0d565b905082815260208101848484011115611b9757611b96611aa8565b5b611ba2848285611b59565b509392505050565b600082601f830112611bbf57611bbe611aa3565b5b8135611bcf848260208601611b68565b91505092915050565b60008060008060808587031215611bf257611bf161154f565b5b6000611c00878288016116ad565b9450506020611c11878288016116ad565b935050604085013567ffffffffffffffff811115611c3257611c31611554565b5b611c3e87828801611baa565b925050606085013567ffffffffffffffff811115611c5f57611c5e611554565b5b611c6b87828801611baa565b91505092959194509250565b7f4f6e6c79206661726d6572732063616e2077697468647261772066756e647321600082015250565b6000611cad6020836115bd565b9150611cb882611c77565b602082019050919050565b60006020820190508181036000830152611cdc81611ca0565b9050919050565b7f4e6f2066756e647320746f207769746864726177210000000000000000000000600082015250565b6000611d196015836115bd565b9150611d2482611ce3565b602082019050919050565b60006020820190508181036000830152611d4881611d0c565b9050919050565b600081905092915050565b50565b6000611d6a600083611d4f565b9150611d7582611d5a565b600082019050919050565b6000611d8b82611d5d565b9150819050919050565b7f4661696c656420746f207472616e736665722066756e64732100000000000000600082015250565b6000611dcb6019836115bd565b9150611dd682611d95565b602082019050919050565b60006020820190508181036000830152611dfa81611dbe565b9050919050565b7f4e487b7100000000000000000000000000000000000000000000000000000000600052602260045260246000fd5b60006002820490506001821680611e4857607f821691505b602082108103611e5b57611e5a611e01565b5b50919050565b7f4e487b7100000000000000000000000000000000000000000000000000000000600052601160045260246000fd5b6000611e9b82611511565b9150611ea683611511565b9250828201905080821115611ebe57611ebd611e61565b5b92915050565b6000604082019050611ed96000830185611702565b611ee6602083018461151b565b9392505050565b6000611ef882611511565b9150611f0383611511565b9250828203905081811115611f1b57611f1a611e61565b5b92915050565b7f4e487b7100000000000000000000000000000000000000000000000000000000600052603260045260246000fd5b6000611f5b82611511565b91507fffffffffffffffffffffffffffffffffffffffffffffffffffffffffffffffff8203611f8d57611f8c611e61565b5b600182019050919050565b60008190508160005260206000209050919050565b60006020601f8301049050919050565b600082821b905092915050565b600060088302611ffa7fffffffffffffffffffffffffffffffffffffffffffffffffffffffffffffffff82611fbd565b6120048683611fbd565b95508019841693508086168417925050509392505050565b6000819050919050565b600061204161203c61203784611511565b61201c565b611511565b9050919050565b6000819050919050565b61205b83612026565b61206f61206782612048565b848454611fca565b825550505050565b600090565b612084612077565b61208f818484612052565b505050565b5b818110156120b3576120a860008261207c565b600181019050612095565b5050565b601f8211156120f8576120c981611f98565b6120d284611fad565b810160208510156120e1578190505b6120f56120ed85611fad565b830182612094565b50505b505050565b600082821c905092915050565b600061211b600019846008026120fd565b1980831691505092915050565b6000612134838361210a565b9150826002028217905092915050565b61214d826115b2565b67ffffffffffffffff81111561216657612165611aad565b5b6121708254611e30565b61217b8282856120b7565b600060209050601f8311600181146121ae576000841561219c578287015190505b6121a68582612128565b86555061220e565b601f1984166121bc86611f98565b60005b828110156121e4578489015182556001820191506020850194506020810190506121bf565b8683101561220157848901516121fd601f89168261210a565b8355505b6001600288020188555050505b50505050505056fea2646970667358221220b9d84b477cf4e1cfa734635c86781dd1e0515332c91c35ed69f39f2550827eda64736f6c63430008130033",
  "linkReferences": {},
  "deployedLinkReferences": {}
}