{
  "_format": "hh-sol-artifact-1",
  "contractName": "FarmDAO",
  "sourceName": "contracts/Dao.sol",
  "abi": [
    {
      "inputs": [
        {
          "internalType": "string",
          "name": "_title",
          "type": "string"
        }
      ],
      "stateMutability": "nonpayable",
      "type": "constructor"
    },
    {
      "anonymous": false,
      "inputs": [
        {
          "indexed": false,
          "internalType": "address",
          "name": "daoAddress",
          "type": "address"
        }
      ],
      "name": "DaoCreated",
      "type": "event"
    },
    {
      "anonymous": false,
      "inputs": [
        {
          "indexed": false,
          "internalType": "address",
          "name": "investor",
          "type": "address"
        },
        {
          "indexed": false,
          "internalType": "uint256",
          "name": "amount",
          "type": "uint256"
        }
      ],
      "name": "InvestmentAdded",
      "type": "event"
    },
    {
      "inputs": [
        {
          "internalType": "uint256",
          "name": "daoId",
          "type": "uint256"
        }
      ],
      "name": "addInvestment",
      "outputs": [],
      "stateMutability": "payable",
      "type": "function"
    },
    {
      "inputs": [
        {
          "internalType": "address",
          "name": "_farmer1",
          "type": "address"
        },
        {
          "internalType": "address",
          "name": "_farmer2",
          "type": "address"
        },
        {
          "internalType": "string",
          "name": "_description",
          "type": "string"
        },
        {
          "internalType": "string",
          "name": "_name",
          "type": "string"
        }
      ],
      "name": "createDao",
      "outputs": [],
      "stateMutability": "nonpayable",
      "type": "function"
    },
    {
      "inputs": [],
      "name": "daoCreated",
      "outputs": [
        {
          "internalType": "bool",
          "name": "",
          "type": "bool"
        }
      ],
      "stateMutability": "view",
      "type": "function"
    },
    {
      "inputs": [
        {
          "internalType": "address",
          "name": "",
          "type": "address"
        },
        {
          "internalType": "uint256",
          "name": "",
          "type": "uint256"
        }
      ],
      "name": "daoFarmers",
      "outputs": [
        {
          "internalType": "address",
          "name": "",
          "type": "address"
        }
      ],
      "stateMutability": "view",
      "type": "function"
    },
    {
      "inputs": [],
      "name": "daoID",
      "outputs": [
        {
          "internalType": "uint256",
          "name": "",
          "type": "uint256"
        }
      ],
      "stateMutability": "view",
      "type": "function"
    },
    {
      "inputs": [
        {
          "internalType": "uint256",
          "name": "",
          "type": "uint256"
        }
      ],
      "name": "daos",
      "outputs": [
        {
          "internalType": "address",
          "name": "address1",
          "type": "address"
        },
        {
          "internalType": "address",
          "name": "address2",
          "type": "address"
        },
        {
          "internalType": "string",
          "name": "description",
          "type": "string"
        },
        {
          "internalType": "string",
          "name": "name",
          "type": "string"
        },
        {
          "internalType": "uint256",
          "name": "id",
          "type": "uint256"
        },
        {
          "internalType": "uint256",
          "name": "amountInvested",
          "type": "uint256"
        }
      ],
      "stateMutability": "view",
      "type": "function"
    },
    {
      "inputs": [],
      "name": "farmer1",
      "outputs": [
        {
          "internalType": "address",
          "name": "",
          "type": "address"
        }
      ],
      "stateMutability": "view",
      "type": "function"
    },
    {
      "inputs": [],
      "name": "farmer2",
      "outputs": [
        {
          "internalType": "address",
          "name": "",
          "type": "address"
        }
      ],
      "stateMutability": "view",
      "type": "function"
    },
    {
      "inputs": [],
      "name": "getAllDaos",
      "outputs": [
        {
          "components": [
            {
              "internalType": "address",
              "name": "address1",
              "type": "address"
            },
            {
              "internalType": "address",
              "name": "address2",
              "type": "address"
            },
            {
              "internalType": "string",
              "name": "description",
              "type": "string"
            },
            {
              "internalType": "string",
              "name": "name",
              "type": "string"
            },
            {
              "internalType": "uint256",
              "name": "id",
              "type": "uint256"
            },
            {
              "internalType": "uint256",
              "name": "amountInvested",
              "type": "uint256"
            }
          ],
          "internalType": "struct FarmDAO.Dao[]",
          "name": "",
          "type": "tuple[]"
        }
      ],
      "stateMutability": "view",
      "type": "function"
    },
    {
      "inputs": [
        {
          "internalType": "uint256",
          "name": "daoId",
          "type": "uint256"
        }
      ],
      "name": "getTotalInvestment",
      "outputs": [
        {
          "internalType": "uint256",
          "name": "",
          "type": "uint256"
        }
      ],
      "stateMutability": "view",
      "type": "function"
    },
    {
      "inputs": [
        {
          "internalType": "address",
          "name": "",
          "type": "address"
        }
      ],
      "name": "investments",
      "outputs": [
        {
          "internalType": "uint256",
          "name": "",
          "type": "uint256"
        }
      ],
      "stateMutability": "view",
      "type": "function"
    },
    {
      "inputs": [],
      "name": "minimumInvestment",
      "outputs": [
        {
          "internalType": "uint256",
          "name": "",
          "type": "uint256"
        }
      ],
      "stateMutability": "view",
      "type": "function"
    },
    {
      "inputs": [],
      "name": "owner",
      "outputs": [
        {
          "internalType": "address",
          "name": "",
          "type": "address"
        }
      ],
      "stateMutability": "view",
      "type": "function"
    },
    {
      "inputs": [],
      "name": "title",
      "outputs": [
        {
          "internalType": "string",
          "name": "",
          "type": "string"
        }
      ],
      "stateMutability": "view",
      "type": "function"
    },
    {
      "inputs": [
        {
          "internalType": "uint256",
          "name": "",
          "type": "uint256"
        }
      ],
      "name": "totalDAOs",
      "outputs": [
        {
          "internalType": "address",
          "name": "address1",
          "type": "address"
        },
        {
          "internalType": "address",
          "name": "address2",
          "type": "address"
        },
        {
          "internalType": "string",
          "name": "description",
          "type": "string"
        },
        {
          "internalType": "string",
          "name": "name",
          "type": "string"
        },
        {
          "internalType": "uint256",
          "name": "id",
          "type": "uint256"
        },
        {
          "internalType": "uint256",
          "name": "amountInvested",
          "type": "uint256"
        }
      ],
      "stateMutability": "view",
      "type": "function"
    },
    {
      "inputs": [],
      "name": "totalInvestment",
      "outputs": [
        {
          "internalType": "uint256",
          "name": "",
          "type": "uint256"
        }
      ],
      "stateMutability": "view",
      "type": "function"
    }
  ],
  "bytecode": "0x60806040523480156200001157600080fd5b506040516200235a3803806200235a8339818101604052810190620000379190620001e3565b80600090816200004891906200047f565b505062000566565b6000604051905090565b600080fd5b600080fd5b600080fd5b600080fd5b6000601f19601f8301169050919050565b7f4e487b7100000000000000000000000000000000000000000000000000000000600052604160045260246000fd5b620000b9826200006e565b810181811067ffffffffffffffff82111715620000db57620000da6200007f565b5b80604052505050565b6000620000f062000050565b9050620000fe8282620000ae565b919050565b600067ffffffffffffffff8211156200012157620001206200007f565b5b6200012c826200006e565b9050602081019050919050565b60005b83811015620001595780820151818401526020810190506200013c565b60008484015250505050565b60006200017c620001768462000103565b620000e4565b9050828152602081018484840111156200019b576200019a62000069565b5b620001a884828562000139565b509392505050565b600082601f830112620001c857620001c762000064565b5b8151620001da84826020860162000165565b91505092915050565b600060208284031215620001fc57620001fb6200005a565b5b600082015167ffffffffffffffff8111156200021d576200021c6200005f565b5b6200022b84828501620001b0565b91505092915050565b600081519050919050565b7f4e487b7100000000000000000000000000000000000000000000000000000000600052602260045260246000fd5b600060028204905060018216806200028757607f821691505b6020821081036200029d576200029c6200023f565b5b50919050565b60008190508160005260206000209050919050565b60006020601f8301049050919050565b600082821b905092915050565b600060088302620003077fffffffffffffffffffffffffffffffffffffffffffffffffffffffffffffffff82620002c8565b620003138683620002c8565b95508019841693508086168417925050509392505050565b6000819050919050565b6000819050919050565b6000620003606200035a62000354846200032b565b62000335565b6200032b565b9050919050565b6000819050919050565b6200037c836200033f565b620003946200038b8262000367565b848454620002d5565b825550505050565b600090565b620003ab6200039c565b620003b881848462000371565b505050565b5b81811015620003e057620003d4600082620003a1565b600181019050620003be565b5050565b601f8211156200042f57620003f981620002a3565b6200040484620002b8565b8101602085101562000414578190505b6200042c6200042385620002b8565b830182620003bd565b50505b505050565b600082821c905092915050565b6000620004546000198460080262000434565b1980831691505092915050565b60006200046f838362000441565b9150826002028217905092915050565b6200048a8262000234565b67ffffffffffffffff811115620004a657620004a56200007f565b5b620004b282546200026e565b620004bf828285620003e4565b600060209050601f831160018114620004f75760008415620004e2578287015190505b620004ee858262000461565b8655506200055e565b601f1984166200050786620002a3565b60005b8281101562000531578489015182556001820191506020850194506020810190506200050a565b868310156200055157848901516200054d601f89168262000441565b8355505b6001600288020188555050505b505050505050565b611de480620005766000396000f3fe6080604052600436106100f35760003560e01c806396b988621161008a578063ce99886d11610059578063ce99886d1461033a578063d840b4df14610365578063f3f0cd91146103a7578063f441a20f146103d2576100f3565b806396b9886214610265578063aa5b6d4c146102a2578063b3afc439146102cd578063ccbbd260146102f8576100f3565b80634c54114c116100c65780634c54114c146101b6578063574eb033146101e1578063610c8ced1461021e5780638da5cb5b1461023a576100f3565b806310ea13df146100f85780632b925b251461012357806334422a471461014e5780634a79d50c1461018b575b600080fd5b34801561010457600080fd5b5061010d6103fb565b60405161011a91906111f1565b60405180910390f35b34801561012f57600080fd5b50610138610401565b60405161014591906111f1565b60405180910390f35b34801561015a57600080fd5b506101756004803603810190610170919061124c565b610407565b60405161018291906111f1565b60405180910390f35b34801561019757600080fd5b506101a0610427565b6040516101ad9190611309565b60405180910390f35b3480156101c257600080fd5b506101cb6104b5565b6040516101d891906111f1565b60405180910390f35b3480156101ed57600080fd5b5061020860048036038101906102039190611389565b6104bb565b60405161021591906113d8565b60405180910390f35b6102386004803603810190610233919061124c565b610509565b005b34801561024657600080fd5b5061024f610705565b60405161025c91906113d8565b60405180910390f35b34801561027157600080fd5b5061028c600480360381019061028791906113f3565b61072b565b60405161029991906111f1565b60405180910390f35b3480156102ae57600080fd5b506102b7610743565b6040516102c491906115da565b60405180910390f35b3480156102d957600080fd5b506102e26109f6565b6040516102ef9190611617565b60405180910390f35b34801561030457600080fd5b5061031f600480360381019061031a919061124c565b610a09565b60405161033196959493929190611632565b60405180910390f35b34801561034657600080fd5b5061034f610b95565b60405161035c91906113d8565b60405180910390f35b34801561037157600080fd5b5061038c6004803603810190610387919061124c565b610bbb565b60405161039e96959493929190611632565b60405180910390f35b3480156103b357600080fd5b506103bc610d57565b6040516103c991906113d8565b60405180910390f35b3480156103de57600080fd5b506103f960048036038101906103f491906117d6565b610d7d565b005b60045481565b60055481565b6000600b6000838152602001908152602001600020600501549050919050565b60008054610434906118a4565b80601f0160208091040260200160405190810160405280929190818152602001828054610460906118a4565b80156104ad5780601f10610482576101008083540402835291602001916104ad565b820191906000526020600020905b81548152906001019060200180831161049057829003601f168201915b505050505081565b60085481565b600a60205281600052604060002081815481106104d757600080fd5b906000526020600020016000915091509054906101000a900473ffffffffffffffffffffffffffffffffffffffff1681565b60055434101561054e576040517f08c379a000000000000000000000000000000000000000000000000000000000815260040161054590611947565b60405180910390fd5b600160009054906101000a900473ffffffffffffffffffffffffffffffffffffffff1673ffffffffffffffffffffffffffffffffffffffff163373ffffffffffffffffffffffffffffffffffffffff16141580156105fa5750600260009054906101000a900473ffffffffffffffffffffffffffffffffffffffff1673ffffffffffffffffffffffffffffffffffffffff163373ffffffffffffffffffffffffffffffffffffffff1614155b610639576040517f08c379a0000000000000000000000000000000000000000000000000000000008152600401610630906119d9565b60405180910390fd5b6000600b60008381526020019081526020016000209050348160050160008282546106649190611a28565b9250508190555034600660003373ffffffffffffffffffffffffffffffffffffffff1673ffffffffffffffffffffffffffffffffffffffff1681526020019081526020016000208190555034600460008282546106c19190611a28565b925050819055507f0e9450c60b5852553342ccda7c9307802902542d41f8d2a9d1d4e0d13e97355c33346040516106f9929190611a5c565b60405180910390a15050565b600360009054906101000a900473ffffffffffffffffffffffffffffffffffffffff1681565b60066020528060005260406000206000915090505481565b6060600060085467ffffffffffffffff811115610763576107626116ab565b5b60405190808252806020026020018201604052801561079c57816020015b610789611176565b8152602001906001900390816107815790505b5090506000600190505b60085481116109ee57600b60008281526020019081526020016000206040518060c00160405290816000820160009054906101000a900473ffffffffffffffffffffffffffffffffffffffff1673ffffffffffffffffffffffffffffffffffffffff1673ffffffffffffffffffffffffffffffffffffffff1681526020016001820160009054906101000a900473ffffffffffffffffffffffffffffffffffffffff1673ffffffffffffffffffffffffffffffffffffffff1673ffffffffffffffffffffffffffffffffffffffff168152602001600282018054610889906118a4565b80601f01602080910402602001604051908101604052809291908181526020018280546108b5906118a4565b80156109025780601f106108d757610100808354040283529160200191610902565b820191906000526020600020905b8154815290600101906020018083116108e557829003601f168201915b5050505050815260200160038201805461091b906118a4565b80601f0160208091040260200160405190810160405280929190818152602001828054610947906118a4565b80156109945780601f1061096957610100808354040283529160200191610994565b820191906000526020600020905b81548152906001019060200180831161097757829003601f168201915b5050505050815260200160048201548152602001600582015481525050826001836109bf9190611a85565b815181106109d0576109cf611ab9565b5b602002602001018190525080806109e690611ae8565b9150506107a6565b508091505090565b600760009054906101000a900460ff1681565b600b6020528060005260406000206000915090508060000160009054906101000a900473ffffffffffffffffffffffffffffffffffffffff16908060010160009054906101000a900473ffffffffffffffffffffffffffffffffffffffff1690806002018054610a78906118a4565b80601f0160208091040260200160405190810160405280929190818152602001828054610aa4906118a4565b8015610af15780601f10610ac657610100808354040283529160200191610af1565b820191906000526020600020905b815481529060010190602001808311610ad457829003601f168201915b505050505090806003018054610b06906118a4565b80601f0160208091040260200160405190810160405280929190818152602001828054610b32906118a4565b8015610b7f5780601f10610b5457610100808354040283529160200191610b7f565b820191906000526020600020905b815481529060010190602001808311610b6257829003601f168201915b5050505050908060040154908060050154905086565b600160009054906101000a900473ffffffffffffffffffffffffffffffffffffffff1681565b60098181548110610bcb57600080fd5b90600052602060002090600602016000915090508060000160009054906101000a900473ffffffffffffffffffffffffffffffffffffffff16908060010160009054906101000a900473ffffffffffffffffffffffffffffffffffffffff1690806002018054610c3a906118a4565b80601f0160208091040260200160405190810160405280929190818152602001828054610c66906118a4565b8015610cb35780601f10610c8857610100808354040283529160200191610cb3565b820191906000526020600020905b815481529060010190602001808311610c9657829003601f168201915b505050505090806003018054610cc8906118a4565b80601f0160208091040260200160405190810160405280929190818152602001828054610cf4906118a4565b8015610d415780601f10610d1657610100808354040283529160200191610d41565b820191906000526020600020905b815481529060010190602001808311610d2457829003601f168201915b5050505050908060040154908060050154905086565b600260009054906101000a900473ffffffffffffffffffffffffffffffffffffffff1681565b60086000815480929190610d9090611ae8565b9190505550600080600854905060006040518060c001604052808873ffffffffffffffffffffffffffffffffffffffff1681526020018773ffffffffffffffffffffffffffffffffffffffff16815260200186815260200185815260200183815260200184815250905080600b600084815260200190815260200160002060008201518160000160006101000a81548173ffffffffffffffffffffffffffffffffffffffff021916908373ffffffffffffffffffffffffffffffffffffffff16021790555060208201518160010160006101000a81548173ffffffffffffffffffffffffffffffffffffffff021916908373ffffffffffffffffffffffffffffffffffffffff1602179055506040820151816002019081610eb19190611cdc565b506060820151816003019081610ec79190611cdc565b506080820151816004015560a08201518160050155905050600981908060018154018082558091505060019003906000526020600020906006020160009091909190915060008201518160000160006101000a81548173ffffffffffffffffffffffffffffffffffffffff021916908373ffffffffffffffffffffffffffffffffffffffff16021790555060208201518160010160006101000a81548173ffffffffffffffffffffffffffffffffffffffff021916908373ffffffffffffffffffffffffffffffffffffffff1602179055506040820151816002019081610fae9190611cdc565b506060820151816003019081610fc49190611cdc565b506080820151816004015560a082015181600501555050600a60003073ffffffffffffffffffffffffffffffffffffffff1673ffffffffffffffffffffffffffffffffffffffff168152602001908152602001600020879080600181540180825580915050600190039060005260206000200160009091909190916101000a81548173ffffffffffffffffffffffffffffffffffffffff021916908373ffffffffffffffffffffffffffffffffffffffff160217905550600a60003073ffffffffffffffffffffffffffffffffffffffff1673ffffffffffffffffffffffffffffffffffffffff168152602001908152602001600020869080600181540180825580915050600190039060005260206000200160009091909190916101000a81548173ffffffffffffffffffffffffffffffffffffffff021916908373ffffffffffffffffffffffffffffffffffffffff1602179055506001600760006101000a81548160ff0219169083151502179055507f87fc1796dbc913ab997ce574688bcad88f5eb317373be9ec71de2bde33e5c8303060405161116591906113d8565b60405180910390a150505050505050565b6040518060c00160405280600073ffffffffffffffffffffffffffffffffffffffff168152602001600073ffffffffffffffffffffffffffffffffffffffff168152602001606081526020016060815260200160008152602001600081525090565b6000819050919050565b6111eb816111d8565b82525050565b600060208201905061120660008301846111e2565b92915050565b6000604051905090565b600080fd5b600080fd5b611229816111d8565b811461123457600080fd5b50565b60008135905061124681611220565b92915050565b60006020828403121561126257611261611216565b5b600061127084828501611237565b91505092915050565b600081519050919050565b600082825260208201905092915050565b60005b838110156112b3578082015181840152602081019050611298565b60008484015250505050565b6000601f19601f8301169050919050565b60006112db82611279565b6112e58185611284565b93506112f5818560208601611295565b6112fe816112bf565b840191505092915050565b6000602082019050818103600083015261132381846112d0565b905092915050565b600073ffffffffffffffffffffffffffffffffffffffff82169050919050565b60006113568261132b565b9050919050565b6113668161134b565b811461137157600080fd5b50565b6000813590506113838161135d565b92915050565b600080604083850312156113a05761139f611216565b5b60006113ae85828601611374565b92505060206113bf85828601611237565b9150509250929050565b6113d28161134b565b82525050565b60006020820190506113ed60008301846113c9565b92915050565b60006020828403121561140957611408611216565b5b600061141784828501611374565b91505092915050565b600081519050919050565b600082825260208201905092915050565b6000819050602082019050919050565b6114558161134b565b82525050565b600082825260208201905092915050565b600061147782611279565b611481818561145b565b9350611491818560208601611295565b61149a816112bf565b840191505092915050565b6114ae816111d8565b82525050565b600060c0830160008301516114cc600086018261144c565b5060208301516114df602086018261144c565b50604083015184820360408601526114f7828261146c565b91505060608301518482036060860152611511828261146c565b915050608083015161152660808601826114a5565b5060a083015161153960a08601826114a5565b508091505092915050565b600061155083836114b4565b905092915050565b6000602082019050919050565b600061157082611420565b61157a818561142b565b93508360208202850161158c8561143c565b8060005b858110156115c857848403895281516115a98582611544565b94506115b483611558565b925060208a01995050600181019050611590565b50829750879550505050505092915050565b600060208201905081810360008301526115f48184611565565b905092915050565b60008115159050919050565b611611816115fc565b82525050565b600060208201905061162c6000830184611608565b92915050565b600060c08201905061164760008301896113c9565b61165460208301886113c9565b818103604083015261166681876112d0565b9050818103606083015261167a81866112d0565b905061168960808301856111e2565b61169660a08301846111e2565b979650505050505050565b600080fd5b600080fd5b7f4e487b7100000000000000000000000000000000000000000000000000000000600052604160045260246000fd5b6116e3826112bf565b810181811067ffffffffffffffff82111715611702576117016116ab565b5b80604052505050565b600061171561120c565b905061172182826116da565b919050565b600067ffffffffffffffff821115611741576117406116ab565b5b61174a826112bf565b9050602081019050919050565b82818337600083830152505050565b600061177961177484611726565b61170b565b905082815260208101848484011115611795576117946116a6565b5b6117a0848285611757565b509392505050565b600082601f8301126117bd576117bc6116a1565b5b81356117cd848260208601611766565b91505092915050565b600080600080608085870312156117f0576117ef611216565b5b60006117fe87828801611374565b945050602061180f87828801611374565b935050604085013567ffffffffffffffff8111156118305761182f61121b565b5b61183c878288016117a8565b925050606085013567ffffffffffffffff81111561185d5761185c61121b565b5b611869878288016117a8565b91505092959194509250565b7f4e487b7100000000000000000000000000000000000000000000000000000000600052602260045260246000fd5b600060028204905060018216806118bc57607f821691505b6020821081036118cf576118ce611875565b5b50919050565b7f496e766573746d656e7420616d6f756e742069732062656c6f7720746865206d60008201527f696e696d756d2072657175697265642e00000000000000000000000000000000602082015250565b6000611931603083611284565b915061193c826118d5565b604082019050919050565b6000602082019050818103600083015261196081611924565b9050919050565b7f4661726d6572732063616e6e6f7420696e7665737420696e207468652066756e60008201527f642e000000000000000000000000000000000000000000000000000000000000602082015250565b60006119c3602283611284565b91506119ce82611967565b604082019050919050565b600060208201905081810360008301526119f2816119b6565b9050919050565b7f4e487b7100000000000000000000000000000000000000000000000000000000600052601160045260246000fd5b6000611a33826111d8565b9150611a3e836111d8565b9250828201905080821115611a5657611a556119f9565b5b92915050565b6000604082019050611a7160008301856113c9565b611a7e60208301846111e2565b9392505050565b6000611a90826111d8565b9150611a9b836111d8565b9250828203905081811115611ab357611ab26119f9565b5b92915050565b7f4e487b7100000000000000000000000000000000000000000000000000000000600052603260045260246000fd5b6000611af3826111d8565b91507fffffffffffffffffffffffffffffffffffffffffffffffffffffffffffffffff8203611b2557611b246119f9565b5b600182019050919050565b60008190508160005260206000209050919050565b60006020601f8301049050919050565b600082821b905092915050565b600060088302611b927fffffffffffffffffffffffffffffffffffffffffffffffffffffffffffffffff82611b55565b611b9c8683611b55565b95508019841693508086168417925050509392505050565b6000819050919050565b6000611bd9611bd4611bcf846111d8565b611bb4565b6111d8565b9050919050565b6000819050919050565b611bf383611bbe565b611c07611bff82611be0565b848454611b62565b825550505050565b600090565b611c1c611c0f565b611c27818484611bea565b505050565b5b81811015611c4b57611c40600082611c14565b600181019050611c2d565b5050565b601f821115611c9057611c6181611b30565b611c6a84611b45565b81016020851015611c79578190505b611c8d611c8585611b45565b830182611c2c565b50505b505050565b600082821c905092915050565b6000611cb360001984600802611c95565b1980831691505092915050565b6000611ccc8383611ca2565b9150826002028217905092915050565b611ce582611279565b67ffffffffffffffff811115611cfe57611cfd6116ab565b5b611d0882546118a4565b611d13828285611c4f565b600060209050601f831160018114611d465760008415611d34578287015190505b611d3e8582611cc0565b865550611da6565b601f198416611d5486611b30565b60005b82811015611d7c57848901518255600182019150602085019450602081019050611d57565b86831015611d995784890151611d95601f891682611ca2565b8355505b6001600288020188555050505b50505050505056fea26469706673582212203482e9674957ee1e3a8334adf0014a95bc0db8227680eca3e5245ed0ee4990ec64736f6c63430008130033",
  "linkReferences": {},
  "deployedLinkReferences": {}
}