{
  "_format": "hh-sol-artifact-1",
  "contractName": "FarmDAO",
  "sourceName": "contracts/Dao.sol",
  "abi": [
    {
      "inputs": [
        {
          "internalType": "string",
          "name": "_title",
          "type": "string"
        }
      ],
      "stateMutability": "nonpayable",
      "type": "constructor"
    },
    {
      "anonymous": false,
      "inputs": [
        {
          "indexed": false,
          "internalType": "address",
          "name": "daoAddress",
          "type": "address"
        }
      ],
      "name": "DaoCreated",
      "type": "event"
    },
    {
      "anonymous": false,
      "inputs": [
        {
          "indexed": false,
          "internalType": "address",
          "name": "investor",
          "type": "address"
        },
        {
          "indexed": false,
          "internalType": "uint256",
          "name": "amount",
          "type": "uint256"
        }
      ],
      "name": "InvestmentAdded",
      "type": "event"
    },
    {
      "inputs": [
        {
          "internalType": "uint256",
          "name": "daoId",
          "type": "uint256"
        }
      ],
      "name": "addInvestment",
      "outputs": [],
      "stateMutability": "payable",
      "type": "function"
    },
    {
      "inputs": [
        {
          "internalType": "address",
          "name": "_farmer1",
          "type": "address"
        },
        {
          "internalType": "address",
          "name": "_farmer2",
          "type": "address"
        },
        {
          "internalType": "string",
          "name": "_description",
          "type": "string"
        },
        {
          "internalType": "string",
          "name": "_name",
          "type": "string"
        }
      ],
      "name": "createDao",
      "outputs": [],
      "stateMutability": "nonpayable",
      "type": "function"
    },
    {
      "inputs": [],
      "name": "daoCreated",
      "outputs": [
        {
          "internalType": "bool",
          "name": "",
          "type": "bool"
        }
      ],
      "stateMutability": "view",
      "type": "function"
    },
    {
      "inputs": [
        {
          "internalType": "address",
          "name": "",
          "type": "address"
        },
        {
          "internalType": "uint256",
          "name": "",
          "type": "uint256"
        }
      ],
      "name": "daoFarmers",
      "outputs": [
        {
          "internalType": "address",
          "name": "",
          "type": "address"
        }
      ],
      "stateMutability": "view",
      "type": "function"
    },
    {
      "inputs": [],
      "name": "daoID",
      "outputs": [
        {
          "internalType": "uint256",
          "name": "",
          "type": "uint256"
        }
      ],
      "stateMutability": "view",
      "type": "function"
    },
    {
      "inputs": [
        {
          "internalType": "uint256",
          "name": "",
          "type": "uint256"
        }
      ],
      "name": "daos",
      "outputs": [
        {
          "internalType": "address",
          "name": "address1",
          "type": "address"
        },
        {
          "internalType": "address",
          "name": "address2",
          "type": "address"
        },
        {
          "internalType": "string",
          "name": "description",
          "type": "string"
        },
        {
          "internalType": "string",
          "name": "name",
          "type": "string"
        },
        {
          "internalType": "uint256",
          "name": "id",
          "type": "uint256"
        },
        {
          "internalType": "uint256",
          "name": "amountInvested",
          "type": "uint256"
        }
      ],
      "stateMutability": "view",
      "type": "function"
    },
    {
      "inputs": [],
      "name": "farmer1",
      "outputs": [
        {
          "internalType": "address",
          "name": "",
          "type": "address"
        }
      ],
      "stateMutability": "view",
      "type": "function"
    },
    {
      "inputs": [],
      "name": "farmer2",
      "outputs": [
        {
          "internalType": "address",
          "name": "",
          "type": "address"
        }
      ],
      "stateMutability": "view",
      "type": "function"
    },
    {
      "inputs": [],
      "name": "getAllDaos",
      "outputs": [
        {
          "components": [
            {
              "internalType": "address",
              "name": "address1",
              "type": "address"
            },
            {
              "internalType": "address",
              "name": "address2",
              "type": "address"
            },
            {
              "internalType": "string",
              "name": "description",
              "type": "string"
            },
            {
              "internalType": "string",
              "name": "name",
              "type": "string"
            },
            {
              "internalType": "uint256",
              "name": "id",
              "type": "uint256"
            },
            {
              "internalType": "uint256",
              "name": "amountInvested",
              "type": "uint256"
            },
            {
              "internalType": "address[]",
              "name": "investors",
              "type": "address[]"
            }
          ],
          "internalType": "struct FarmDAO.Dao[]",
          "name": "",
          "type": "tuple[]"
        }
      ],
      "stateMutability": "view",
      "type": "function"
    },
    {
      "inputs": [
        {
          "internalType": "uint256",
          "name": "daoId",
          "type": "uint256"
        }
      ],
      "name": "getTotalInvestment",
      "outputs": [
        {
          "internalType": "uint256",
          "name": "",
          "type": "uint256"
        }
      ],
      "stateMutability": "view",
      "type": "function"
    },
    {
      "inputs": [
        {
          "internalType": "address",
          "name": "",
          "type": "address"
        }
      ],
      "name": "investments",
      "outputs": [
        {
          "internalType": "uint256",
          "name": "",
          "type": "uint256"
        }
      ],
      "stateMutability": "view",
      "type": "function"
    },
    {
      "inputs": [],
      "name": "minimumInvestment",
      "outputs": [
        {
          "internalType": "uint256",
          "name": "",
          "type": "uint256"
        }
      ],
      "stateMutability": "view",
      "type": "function"
    },
    {
      "inputs": [],
      "name": "owner",
      "outputs": [
        {
          "internalType": "address",
          "name": "",
          "type": "address"
        }
      ],
      "stateMutability": "view",
      "type": "function"
    },
    {
      "inputs": [],
      "name": "title",
      "outputs": [
        {
          "internalType": "string",
          "name": "",
          "type": "string"
        }
      ],
      "stateMutability": "view",
      "type": "function"
    },
    {
      "inputs": [
        {
          "internalType": "uint256",
          "name": "",
          "type": "uint256"
        }
      ],
      "name": "totalDAOs",
      "outputs": [
        {
          "internalType": "address",
          "name": "address1",
          "type": "address"
        },
        {
          "internalType": "address",
          "name": "address2",
          "type": "address"
        },
        {
          "internalType": "string",
          "name": "description",
          "type": "string"
        },
        {
          "internalType": "string",
          "name": "name",
          "type": "string"
        },
        {
          "internalType": "uint256",
          "name": "id",
          "type": "uint256"
        },
        {
          "internalType": "uint256",
          "name": "amountInvested",
          "type": "uint256"
        }
      ],
      "stateMutability": "view",
      "type": "function"
    },
    {
      "inputs": [],
      "name": "totalInvestment",
      "outputs": [
        {
          "internalType": "uint256",
          "name": "",
          "type": "uint256"
        }
      ],
      "stateMutability": "view",
      "type": "function"
    },
    {
      "inputs": [
        {
          "internalType": "uint256",
          "name": "daoId",
          "type": "uint256"
        }
      ],
      "name": "withDrawDFunds",
      "outputs": [],
      "stateMutability": "nonpayable",
      "type": "function"
    }
  ],
  "bytecode": "0x60806040523480156200001157600080fd5b5060405162002943380380620029438339818101604052810190620000379190620001e3565b80600090816200004891906200047f565b505062000566565b6000604051905090565b600080fd5b600080fd5b600080fd5b600080fd5b6000601f19601f8301169050919050565b7f4e487b7100000000000000000000000000000000000000000000000000000000600052604160045260246000fd5b620000b9826200006e565b810181811067ffffffffffffffff82111715620000db57620000da6200007f565b5b80604052505050565b6000620000f062000050565b9050620000fe8282620000ae565b919050565b600067ffffffffffffffff8211156200012157620001206200007f565b5b6200012c826200006e565b9050602081019050919050565b60005b83811015620001595780820151818401526020810190506200013c565b60008484015250505050565b60006200017c620001768462000103565b620000e4565b9050828152602081018484840111156200019b576200019a62000069565b5b620001a884828562000139565b509392505050565b600082601f830112620001c857620001c762000064565b5b8151620001da84826020860162000165565b91505092915050565b600060208284031215620001fc57620001fb6200005a565b5b600082015167ffffffffffffffff8111156200021d576200021c6200005f565b5b6200022b84828501620001b0565b91505092915050565b600081519050919050565b7f4e487b7100000000000000000000000000000000000000000000000000000000600052602260045260246000fd5b600060028204905060018216806200028757607f821691505b6020821081036200029d576200029c6200023f565b5b50919050565b60008190508160005260206000209050919050565b60006020601f8301049050919050565b600082821b905092915050565b600060088302620003077fffffffffffffffffffffffffffffffffffffffffffffffffffffffffffffffff82620002c8565b620003138683620002c8565b95508019841693508086168417925050509392505050565b6000819050919050565b6000819050919050565b6000620003606200035a62000354846200032b565b62000335565b6200032b565b9050919050565b6000819050919050565b6200037c836200033f565b620003946200038b8262000367565b848454620002d5565b825550505050565b600090565b620003ab6200039c565b620003b881848462000371565b505050565b5b81811015620003e057620003d4600082620003a1565b600181019050620003be565b5050565b601f8211156200042f57620003f981620002a3565b6200040484620002b8565b8101602085101562000414578190505b6200042c6200042385620002b8565b830182620003bd565b50505b505050565b600082821c905092915050565b6000620004546000198460080262000434565b1980831691505092915050565b60006200046f838362000441565b9150826002028217905092915050565b6200048a8262000234565b67ffffffffffffffff811115620004a657620004a56200007f565b5b620004b282546200026e565b620004bf828285620003e4565b600060209050601f831160018114620004f75760008415620004e2578287015190505b620004ee858262000461565b8655506200055e565b601f1984166200050786620002a3565b60005b8281101562000531578489015182556001820191506020850194506020810190506200050a565b868310156200055157848901516200054d601f89168262000441565b8355505b6001600288020188555050505b505050505050565b6123cd80620005766000396000f3fe6080604052600436106100fe5760003560e01c80638da5cb5b11610095578063ccbbd26011610064578063ccbbd2601461032c578063ce99886d1461036e578063d840b4df14610399578063f3f0cd91146103db578063f441a20f14610406576100fe565b80638da5cb5b1461026e57806396b9886214610299578063aa5b6d4c146102d6578063b3afc43914610301576100fe565b80634a79d50c116100d15780634a79d50c146101bf5780634c54114c146101ea578063574eb03314610215578063610c8ced14610252576100fe565b806310ea13df14610103578063192c86d41461012e5780632b925b251461015757806334422a4714610182575b600080fd5b34801561010f57600080fd5b5061011861042f565b6040516101259190611619565b60405180910390f35b34801561013a57600080fd5b5061015560048036038101906101509190611674565b610435565b005b34801561016357600080fd5b5061016c610640565b6040516101799190611619565b60405180910390f35b34801561018e57600080fd5b506101a960048036038101906101a49190611674565b610646565b6040516101b69190611619565b60405180910390f35b3480156101cb57600080fd5b506101d4610666565b6040516101e19190611731565b60405180910390f35b3480156101f657600080fd5b506101ff6106f4565b60405161020c9190611619565b60405180910390f35b34801561022157600080fd5b5061023c600480360381019061023791906117b1565b6106fa565b6040516102499190611800565b60405180910390f35b61026c60048036038101906102679190611674565b610748565b005b34801561027a57600080fd5b50610283610968565b6040516102909190611800565b60405180910390f35b3480156102a557600080fd5b506102c060048036038101906102bb919061181b565b61098e565b6040516102cd9190611619565b60405180910390f35b3480156102e257600080fd5b506102eb6109a6565b6040516102f89190611acb565b60405180910390f35b34801561030d57600080fd5b50610316610ce7565b6040516103239190611b08565b60405180910390f35b34801561033857600080fd5b50610353600480360381019061034e9190611674565b610cfa565b60405161036596959493929190611b23565b60405180910390f35b34801561037a57600080fd5b50610383610e86565b6040516103909190611800565b60405180910390f35b3480156103a557600080fd5b506103c060048036038101906103bb9190611674565b610eac565b6040516103d296959493929190611b23565b60405180910390f35b3480156103e757600080fd5b506103f0611048565b6040516103fd9190611800565b60405180910390f35b34801561041257600080fd5b5061042d60048036038101906104289190611cc7565b61106e565b005b60045481565b6000600b600083815260200190815260200160002090508060000160009054906101000a900473ffffffffffffffffffffffffffffffffffffffff1673ffffffffffffffffffffffffffffffffffffffff163373ffffffffffffffffffffffffffffffffffffffff1614806104f957508060010160009054906101000a900473ffffffffffffffffffffffffffffffffffffffff1673ffffffffffffffffffffffffffffffffffffffff163373ffffffffffffffffffffffffffffffffffffffff16145b610538576040517f08c379a000000000000000000000000000000000000000000000000000000000815260040161052f90611db2565b60405180910390fd5b60008160050154905060008111610584576040517f08c379a000000000000000000000000000000000000000000000000000000000815260040161057b90611e1e565b60405180910390fd5b6000826005018190555060003373ffffffffffffffffffffffffffffffffffffffff16826040516105b490611e6f565b60006040518083038185875af1925050503d80600081146105f1576040519150601f19603f3d011682016040523d82523d6000602084013e6105f6565b606091505b505090508061063a576040517f08c379a000000000000000000000000000000000000000000000000000000000815260040161063190611ed0565b60405180910390fd5b50505050565b60055481565b6000600b6000838152602001908152602001600020600501549050919050565b6000805461067390611f1f565b80601f016020809104026020016040519081016040528092919081815260200182805461069f90611f1f565b80156106ec5780601f106106c1576101008083540402835291602001916106ec565b820191906000526020600020905b8154815290600101906020018083116106cf57829003601f168201915b505050505081565b60085481565b600a602052816000526040600020818154811061071657600080fd5b906000526020600020016000915091509054906101000a900473ffffffffffffffffffffffffffffffffffffffff1681565b6000600b600083815260200190815260200160002090508060000160009054906101000a900473ffffffffffffffffffffffffffffffffffffffff1673ffffffffffffffffffffffffffffffffffffffff163373ffffffffffffffffffffffffffffffffffffffff161415801561080f57508060010160009054906101000a900473ffffffffffffffffffffffffffffffffffffffff1673ffffffffffffffffffffffffffffffffffffffff163373ffffffffffffffffffffffffffffffffffffffff1614155b61084e576040517f08c379a000000000000000000000000000000000000000000000000000000000815260040161084590611fc2565b60405180910390fd5b348160050160008282546108629190612011565b9250508190555080600601339080600181540180825580915050600190039060005260206000200160009091909190916101000a81548173ffffffffffffffffffffffffffffffffffffffff021916908373ffffffffffffffffffffffffffffffffffffffff16021790555034600660003373ffffffffffffffffffffffffffffffffffffffff1673ffffffffffffffffffffffffffffffffffffffff1681526020019081526020016000208190555034600460008282546109249190612011565b925050819055507f0e9450c60b5852553342ccda7c9307802902542d41f8d2a9d1d4e0d13e97355c333460405161095c929190612045565b60405180910390a15050565b600360009054906101000a900473ffffffffffffffffffffffffffffffffffffffff1681565b60066020528060005260406000206000915090505481565b6060600060085467ffffffffffffffff8111156109c6576109c5611b9c565b5b6040519080825280602002602001820160405280156109ff57816020015b6109ec6114f0565b8152602001906001900390816109e45790505b5090506000600190505b6008548111610cdf57600b60008281526020019081526020016000206040518060e00160405290816000820160009054906101000a900473ffffffffffffffffffffffffffffffffffffffff1673ffffffffffffffffffffffffffffffffffffffff1673ffffffffffffffffffffffffffffffffffffffff1681526020016001820160009054906101000a900473ffffffffffffffffffffffffffffffffffffffff1673ffffffffffffffffffffffffffffffffffffffff1673ffffffffffffffffffffffffffffffffffffffff168152602001600282018054610aec90611f1f565b80601f0160208091040260200160405190810160405280929190818152602001828054610b1890611f1f565b8015610b655780601f10610b3a57610100808354040283529160200191610b65565b820191906000526020600020905b815481529060010190602001808311610b4857829003601f168201915b50505050508152602001600382018054610b7e90611f1f565b80601f0160208091040260200160405190810160405280929190818152602001828054610baa90611f1f565b8015610bf75780601f10610bcc57610100808354040283529160200191610bf7565b820191906000526020600020905b815481529060010190602001808311610bda57829003601f168201915b50505050508152602001600482015481526020016005820154815260200160068201805480602002602001604051908101604052809291908181526020018280548015610c9957602002820191906000526020600020905b8160009054906101000a900473ffffffffffffffffffffffffffffffffffffffff1673ffffffffffffffffffffffffffffffffffffffff1681526020019060010190808311610c4f575b50505050508152505082600183610cb0919061206e565b81518110610cc157610cc06120a2565b5b60200260200101819052508080610cd7906120d1565b915050610a09565b508091505090565b600760009054906101000a900460ff1681565b600b6020528060005260406000206000915090508060000160009054906101000a900473ffffffffffffffffffffffffffffffffffffffff16908060010160009054906101000a900473ffffffffffffffffffffffffffffffffffffffff1690806002018054610d6990611f1f565b80601f0160208091040260200160405190810160405280929190818152602001828054610d9590611f1f565b8015610de25780601f10610db757610100808354040283529160200191610de2565b820191906000526020600020905b815481529060010190602001808311610dc557829003601f168201915b505050505090806003018054610df790611f1f565b80601f0160208091040260200160405190810160405280929190818152602001828054610e2390611f1f565b8015610e705780601f10610e4557610100808354040283529160200191610e70565b820191906000526020600020905b815481529060010190602001808311610e5357829003601f168201915b5050505050908060040154908060050154905086565b600160009054906101000a900473ffffffffffffffffffffffffffffffffffffffff1681565b60098181548110610ebc57600080fd5b90600052602060002090600702016000915090508060000160009054906101000a900473ffffffffffffffffffffffffffffffffffffffff16908060010160009054906101000a900473ffffffffffffffffffffffffffffffffffffffff1690806002018054610f2b90611f1f565b80601f0160208091040260200160405190810160405280929190818152602001828054610f5790611f1f565b8015610fa45780601f10610f7957610100808354040283529160200191610fa4565b820191906000526020600020905b815481529060010190602001808311610f8757829003601f168201915b505050505090806003018054610fb990611f1f565b80601f0160208091040260200160405190810160405280929190818152602001828054610fe590611f1f565b80156110325780601f1061100757610100808354040283529160200191611032565b820191906000526020600020905b81548152906001019060200180831161101557829003601f168201915b5050505050908060040154908060050154905086565b600260009054906101000a900473ffffffffffffffffffffffffffffffffffffffff1681565b60086000815480929190611081906120d1565b9190505550600080600854905060006040518060e001604052808873ffffffffffffffffffffffffffffffffffffffff1681526020018773ffffffffffffffffffffffffffffffffffffffff168152602001868152602001858152602001838152602001848152602001600067ffffffffffffffff81111561110657611105611b9c565b5b6040519080825280602002602001820160405280156111345781602001602082028036833780820191505090505b50815250905080600b600084815260200190815260200160002060008201518160000160006101000a81548173ffffffffffffffffffffffffffffffffffffffff021916908373ffffffffffffffffffffffffffffffffffffffff16021790555060208201518160010160006101000a81548173ffffffffffffffffffffffffffffffffffffffff021916908373ffffffffffffffffffffffffffffffffffffffff16021790555060408201518160020190816111f191906122c5565b50606082015181600301908161120791906122c5565b506080820151816004015560a0820151816005015560c0820151816006019080519060200190611238929190611559565b50905050600981908060018154018082558091505060019003906000526020600020906007020160009091909190915060008201518160000160006101000a81548173ffffffffffffffffffffffffffffffffffffffff021916908373ffffffffffffffffffffffffffffffffffffffff16021790555060208201518160010160006101000a81548173ffffffffffffffffffffffffffffffffffffffff021916908373ffffffffffffffffffffffffffffffffffffffff160217905550604082015181600201908161130b91906122c5565b50606082015181600301908161132191906122c5565b506080820151816004015560a0820151816005015560c0820151816006019080519060200190611352929190611559565b505050600a60003073ffffffffffffffffffffffffffffffffffffffff1673ffffffffffffffffffffffffffffffffffffffff168152602001908152602001600020879080600181540180825580915050600190039060005260206000200160009091909190916101000a81548173ffffffffffffffffffffffffffffffffffffffff021916908373ffffffffffffffffffffffffffffffffffffffff160217905550600a60003073ffffffffffffffffffffffffffffffffffffffff1673ffffffffffffffffffffffffffffffffffffffff168152602001908152602001600020869080600181540180825580915050600190039060005260206000200160009091909190916101000a81548173ffffffffffffffffffffffffffffffffffffffff021916908373ffffffffffffffffffffffffffffffffffffffff1602179055506001600760006101000a81548160ff0219169083151502179055507f87fc1796dbc913ab997ce574688bcad88f5eb317373be9ec71de2bde33e5c830306040516114df9190611800565b60405180910390a150505050505050565b6040518060e00160405280600073ffffffffffffffffffffffffffffffffffffffff168152602001600073ffffffffffffffffffffffffffffffffffffffff16815260200160608152602001606081526020016000815260200160008152602001606081525090565b8280548282559060005260206000209081019282156115d2579160200282015b828111156115d15782518260006101000a81548173ffffffffffffffffffffffffffffffffffffffff021916908373ffffffffffffffffffffffffffffffffffffffff16021790555091602001919060010190611579565b5b5090506115df91906115e3565b5090565b5b808211156115fc5760008160009055506001016115e4565b5090565b6000819050919050565b61161381611600565b82525050565b600060208201905061162e600083018461160a565b92915050565b6000604051905090565b600080fd5b600080fd5b61165181611600565b811461165c57600080fd5b50565b60008135905061166e81611648565b92915050565b60006020828403121561168a5761168961163e565b5b60006116988482850161165f565b91505092915050565b600081519050919050565b600082825260208201905092915050565b60005b838110156116db5780820151818401526020810190506116c0565b60008484015250505050565b6000601f19601f8301169050919050565b6000611703826116a1565b61170d81856116ac565b935061171d8185602086016116bd565b611726816116e7565b840191505092915050565b6000602082019050818103600083015261174b81846116f8565b905092915050565b600073ffffffffffffffffffffffffffffffffffffffff82169050919050565b600061177e82611753565b9050919050565b61178e81611773565b811461179957600080fd5b50565b6000813590506117ab81611785565b92915050565b600080604083850312156117c8576117c761163e565b5b60006117d68582860161179c565b92505060206117e78582860161165f565b9150509250929050565b6117fa81611773565b82525050565b600060208201905061181560008301846117f1565b92915050565b6000602082840312156118315761183061163e565b5b600061183f8482850161179c565b91505092915050565b600081519050919050565b600082825260208201905092915050565b6000819050602082019050919050565b61187d81611773565b82525050565b600082825260208201905092915050565b600061189f826116a1565b6118a98185611883565b93506118b98185602086016116bd565b6118c2816116e7565b840191505092915050565b6118d681611600565b82525050565b600081519050919050565b600082825260208201905092915050565b6000819050602082019050919050565b60006119148383611874565b60208301905092915050565b6000602082019050919050565b6000611938826118dc565b61194281856118e7565b935061194d836118f8565b8060005b8381101561197e5781516119658882611908565b975061197083611920565b925050600181019050611951565b5085935050505092915050565b600060e0830160008301516119a36000860182611874565b5060208301516119b66020860182611874565b50604083015184820360408601526119ce8282611894565b915050606083015184820360608601526119e88282611894565b91505060808301516119fd60808601826118cd565b5060a0830151611a1060a08601826118cd565b5060c083015184820360c0860152611a28828261192d565b9150508091505092915050565b6000611a41838361198b565b905092915050565b6000602082019050919050565b6000611a6182611848565b611a6b8185611853565b935083602082028501611a7d85611864565b8060005b85811015611ab95784840389528151611a9a8582611a35565b9450611aa583611a49565b925060208a01995050600181019050611a81565b50829750879550505050505092915050565b60006020820190508181036000830152611ae58184611a56565b905092915050565b60008115159050919050565b611b0281611aed565b82525050565b6000602082019050611b1d6000830184611af9565b92915050565b600060c082019050611b3860008301896117f1565b611b4560208301886117f1565b8181036040830152611b5781876116f8565b90508181036060830152611b6b81866116f8565b9050611b7a608083018561160a565b611b8760a083018461160a565b979650505050505050565b600080fd5b600080fd5b7f4e487b7100000000000000000000000000000000000000000000000000000000600052604160045260246000fd5b611bd4826116e7565b810181811067ffffffffffffffff82111715611bf357611bf2611b9c565b5b80604052505050565b6000611c06611634565b9050611c128282611bcb565b919050565b600067ffffffffffffffff821115611c3257611c31611b9c565b5b611c3b826116e7565b9050602081019050919050565b82818337600083830152505050565b6000611c6a611c6584611c17565b611bfc565b905082815260208101848484011115611c8657611c85611b97565b5b611c91848285611c48565b509392505050565b600082601f830112611cae57611cad611b92565b5b8135611cbe848260208601611c57565b91505092915050565b60008060008060808587031215611ce157611ce061163e565b5b6000611cef8782880161179c565b9450506020611d008782880161179c565b935050604085013567ffffffffffffffff811115611d2157611d20611643565b5b611d2d87828801611c99565b925050606085013567ffffffffffffffff811115611d4e57611d4d611643565b5b611d5a87828801611c99565b91505092959194509250565b7f4f6e6c79206661726d6572732063616e2077697468647261772066756e647321600082015250565b6000611d9c6020836116ac565b9150611da782611d66565b602082019050919050565b60006020820190508181036000830152611dcb81611d8f565b9050919050565b7f4e6f2066756e647320746f207769746864726177210000000000000000000000600082015250565b6000611e086015836116ac565b9150611e1382611dd2565b602082019050919050565b60006020820190508181036000830152611e3781611dfb565b9050919050565b600081905092915050565b50565b6000611e59600083611e3e565b9150611e6482611e49565b600082019050919050565b6000611e7a82611e4c565b9150819050919050565b7f4661696c656420746f207472616e736665722066756e64732100000000000000600082015250565b6000611eba6019836116ac565b9150611ec582611e84565b602082019050919050565b60006020820190508181036000830152611ee981611ead565b9050919050565b7f4e487b7100000000000000000000000000000000000000000000000000000000600052602260045260246000fd5b60006002820490506001821680611f3757607f821691505b602082108103611f4a57611f49611ef0565b5b50919050565b7f4f6e6c7920616464726573736573207468617420686176656e2774206a6f696e60008201527f6564207468652044414f2063616e20696e766573742e00000000000000000000602082015250565b6000611fac6036836116ac565b9150611fb782611f50565b604082019050919050565b60006020820190508181036000830152611fdb81611f9f565b9050919050565b7f4e487b7100000000000000000000000000000000000000000000000000000000600052601160045260246000fd5b600061201c82611600565b915061202783611600565b925082820190508082111561203f5761203e611fe2565b5b92915050565b600060408201905061205a60008301856117f1565b612067602083018461160a565b9392505050565b600061207982611600565b915061208483611600565b925082820390508181111561209c5761209b611fe2565b5b92915050565b7f4e487b7100000000000000000000000000000000000000000000000000000000600052603260045260246000fd5b60006120dc82611600565b91507fffffffffffffffffffffffffffffffffffffffffffffffffffffffffffffffff820361210e5761210d611fe2565b5b600182019050919050565b60008190508160005260206000209050919050565b60006020601f8301049050919050565b600082821b905092915050565b60006008830261217b7fffffffffffffffffffffffffffffffffffffffffffffffffffffffffffffffff8261213e565b612185868361213e565b95508019841693508086168417925050509392505050565b6000819050919050565b60006121c26121bd6121b884611600565b61219d565b611600565b9050919050565b6000819050919050565b6121dc836121a7565b6121f06121e8826121c9565b84845461214b565b825550505050565b600090565b6122056121f8565b6122108184846121d3565b505050565b5b81811015612234576122296000826121fd565b600181019050612216565b5050565b601f8211156122795761224a81612119565b6122538461212e565b81016020851015612262578190505b61227661226e8561212e565b830182612215565b50505b505050565b600082821c905092915050565b600061229c6000198460080261227e565b1980831691505092915050565b60006122b5838361228b565b9150826002028217905092915050565b6122ce826116a1565b67ffffffffffffffff8111156122e7576122e6611b9c565b5b6122f18254611f1f565b6122fc828285612238565b600060209050601f83116001811461232f576000841561231d578287015190505b61232785826122a9565b86555061238f565b601f19841661233d86612119565b60005b8281101561236557848901518255600182019150602085019450602081019050612340565b86831015612382578489015161237e601f89168261228b565b8355505b6001600288020188555050505b50505050505056fea26469706673582212202607696e499e3efe746f71f55a7e327125602a02e8205885857647c9afcb012d64736f6c63430008130033",
  "linkReferences": {},
  "deployedLinkReferences": {}
}