{
  "_format": "hh-sol-artifact-1",
  "contractName": "Marketplace",
  "sourceName": "contracts/Marketplace.sol",
  "abi": [
    {
      "inputs": [
        {
          "internalType": "address",
          "name": "_farmersDAO",
          "type": "address"
        }
      ],
      "stateMutability": "nonpayable",
      "type": "constructor"
    },
    {
      "inputs": [],
      "name": "currentFunding",
      "outputs": [
        {
          "internalType": "uint256",
          "name": "",
          "type": "uint256"
        }
      ],
      "stateMutability": "view",
      "type": "function"
    },
    {
      "inputs": [],
      "name": "farmer",
      "outputs": [
        {
          "internalType": "address",
          "name": "",
          "type": "address"
        }
      ],
      "stateMutability": "view",
      "type": "function"
    },
    {
      "inputs": [],
      "name": "farmersDAO",
      "outputs": [
        {
          "internalType": "contract FarmersDAO",
          "name": "",
          "type": "address"
        }
      ],
      "stateMutability": "view",
      "type": "function"
    },
    {
      "inputs": [],
      "name": "fundingGoal",
      "outputs": [
        {
          "internalType": "uint256",
          "name": "",
          "type": "uint256"
        }
      ],
      "stateMutability": "view",
      "type": "function"
    },
    {
      "inputs": [
        {
          "internalType": "address",
          "name": "investor",
          "type": "address"
        }
      ],
      "name": "getInvestmentAmount",
      "outputs": [
        {
          "internalType": "uint256",
          "name": "",
          "type": "uint256"
        }
      ],
      "stateMutability": "view",
      "type": "function"
    },
    {
      "inputs": [],
      "name": "getInvestorCount",
      "outputs": [
        {
          "internalType": "uint256",
          "name": "",
          "type": "uint256"
        }
      ],
      "stateMutability": "view",
      "type": "function"
    },
    {
      "inputs": [
        {
          "internalType": "uint256",
          "name": "daoID",
          "type": "uint256"
        }
      ],
      "name": "invest",
      "outputs": [],
      "stateMutability": "payable",
      "type": "function"
    },
    {
      "inputs": [
        {
          "internalType": "address",
          "name": "",
          "type": "address"
        }
      ],
      "name": "investments",
      "outputs": [
        {
          "internalType": "uint256",
          "name": "",
          "type": "uint256"
        }
      ],
      "stateMutability": "view",
      "type": "function"
    },
    {
      "inputs": [],
      "name": "numInvestors",
      "outputs": [
        {
          "internalType": "uint256",
          "name": "",
          "type": "uint256"
        }
      ],
      "stateMutability": "view",
      "type": "function"
    },
    {
      "inputs": [],
      "name": "withdrawFunds",
      "outputs": [],
      "stateMutability": "nonpayable",
      "type": "function"
    }
  ],
  "bytecode": "0x608060405234801561001057600080fd5b50604051610c7d380380610c7d833981810160405281019061003291906100dc565b80600560006101000a81548173ffffffffffffffffffffffffffffffffffffffff021916908373ffffffffffffffffffffffffffffffffffffffff16021790555050610109565b600080fd5b600073ffffffffffffffffffffffffffffffffffffffff82169050919050565b60006100a98261007e565b9050919050565b6100b98161009e565b81146100c457600080fd5b50565b6000815190506100d6816100b0565b92915050565b6000602082840312156100f2576100f1610079565b5b6000610100848285016100c7565b91505092915050565b610b65806101186000396000f3fe6080604052600436106100915760003560e01c806331e2b5de1161005957806331e2b5de1461015c5780637a3a0e8414610187578063960524e3146101b257806396b98862146101dd578063d811fcf01461021a57610091565b80630888b70d14610096578063132ae5e9146100c157806324600fc3146100ec5780632afcf480146101035780632d6fa4b21461011f575b600080fd5b3480156100a257600080fd5b506100ab610245565b6040516100b891906106a9565b60405180910390f35b3480156100cd57600080fd5b506100d661024b565b6040516100e391906106a9565b60405180910390f35b3480156100f857600080fd5b50610101610251565b005b61011d600480360381019061011891906106f5565b610352565b005b34801561012b57600080fd5b5061014660048036038101906101419190610780565b6105d5565b60405161015391906106a9565b60405180910390f35b34801561016857600080fd5b5061017161061e565b60405161017e919061080c565b60405180910390f35b34801561019357600080fd5b5061019c610644565b6040516101a991906106a9565b60405180910390f35b3480156101be57600080fd5b506101c761064a565b6040516101d491906106a9565b60405180910390f35b3480156101e957600080fd5b5061020460048036038101906101ff9190610780565b610654565b60405161021191906106a9565b60405180910390f35b34801561022657600080fd5b5061022f61066c565b60405161023c9190610836565b60405180910390f35b60025481565b60035481565b60008054906101000a900473ffffffffffffffffffffffffffffffffffffffff1673ffffffffffffffffffffffffffffffffffffffff163373ffffffffffffffffffffffffffffffffffffffff16146102df576040517f08c379a00000000000000000000000000000000000000000000000000000000081526004016102d6906108d4565b60405180910390fd5b60008054906101000a900473ffffffffffffffffffffffffffffffffffffffff1673ffffffffffffffffffffffffffffffffffffffff166108fc6002549081150290604051600060405180830381858888f19350505050158015610347573d6000803e3d6000fd5b506000600281905550565b60008054906101000a900473ffffffffffffffffffffffffffffffffffffffff1673ffffffffffffffffffffffffffffffffffffffff163373ffffffffffffffffffffffffffffffffffffffff16036103e0576040517f08c379a00000000000000000000000000000000000000000000000000000000081526004016103d790610966565b60405180910390fd5b60003411610423576040517f08c379a000000000000000000000000000000000000000000000000000000000815260040161041a906109f8565b60405180910390fd5b600154346002546104349190610a47565b1115610475576040517f08c379a000000000000000000000000000000000000000000000000000000000815260040161046c90610ac7565b60405180910390fd5b600560009054906101000a900473ffffffffffffffffffffffffffffffffffffffff1673ffffffffffffffffffffffffffffffffffffffff1663610c8ced34836040518363ffffffff1660e01b81526004016104d191906106a9565b6000604051808303818588803b1580156104ea57600080fd5b505af11580156104fe573d6000803e3d6000fd5b50505050506000600460003373ffffffffffffffffffffffffffffffffffffffff1673ffffffffffffffffffffffffffffffffffffffff1681526020019081526020016000205403610563576003600081548092919061055d90610ae7565b91905055505b34600460003373ffffffffffffffffffffffffffffffffffffffff1673ffffffffffffffffffffffffffffffffffffffff16815260200190815260200160002060008282546105b29190610a47565b9250508190555034600260008282546105cb9190610a47565b9250508190555050565b6000600460008373ffffffffffffffffffffffffffffffffffffffff1673ffffffffffffffffffffffffffffffffffffffff168152602001908152602001600020549050919050565b600560009054906101000a900473ffffffffffffffffffffffffffffffffffffffff1681565b60015481565b6000600354905090565b60046020528060005260406000206000915090505481565b60008054906101000a900473ffffffffffffffffffffffffffffffffffffffff1681565b6000819050919050565b6106a381610690565b82525050565b60006020820190506106be600083018461069a565b92915050565b600080fd5b6106d281610690565b81146106dd57600080fd5b50565b6000813590506106ef816106c9565b92915050565b60006020828403121561070b5761070a6106c4565b5b6000610719848285016106e0565b91505092915050565b600073ffffffffffffffffffffffffffffffffffffffff82169050919050565b600061074d82610722565b9050919050565b61075d81610742565b811461076857600080fd5b50565b60008135905061077a81610754565b92915050565b600060208284031215610796576107956106c4565b5b60006107a48482850161076b565b91505092915050565b6000819050919050565b60006107d26107cd6107c884610722565b6107ad565b610722565b9050919050565b60006107e4826107b7565b9050919050565b60006107f6826107d9565b9050919050565b610806816107eb565b82525050565b600060208201905061082160008301846107fd565b92915050565b61083081610742565b82525050565b600060208201905061084b6000830184610827565b92915050565b600082825260208201905092915050565b7f4f6e6c7920746865206661726d65722063616e2077697468647261772066756e60008201527f6473000000000000000000000000000000000000000000000000000000000000602082015250565b60006108be602283610851565b91506108c982610862565b604082019050919050565b600060208201905081810360008301526108ed816108b1565b9050919050565b7f4661726d65722063616e6e6f7420696e7665737420696e207468656972206f7760008201527f6e2044414f000000000000000000000000000000000000000000000000000000602082015250565b6000610950602583610851565b915061095b826108f4565b604082019050919050565b6000602082019050818103600083015261097f81610943565b9050919050565b7f496e766573746d656e74206d7573742062652067726561746572207468616e2060008201527f3000000000000000000000000000000000000000000000000000000000000000602082015250565b60006109e2602183610851565b91506109ed82610986565b604082019050919050565b60006020820190508181036000830152610a11816109d5565b9050919050565b7f4e487b7100000000000000000000000000000000000000000000000000000000600052601160045260246000fd5b6000610a5282610690565b9150610a5d83610690565b9250828201905080821115610a7557610a74610a18565b5b92915050565b7f496e766573746d656e7420657863656564732066756e64696e6720676f616c00600082015250565b6000610ab1601f83610851565b9150610abc82610a7b565b602082019050919050565b60006020820190508181036000830152610ae081610aa4565b9050919050565b6000610af282610690565b91507fffffffffffffffffffffffffffffffffffffffffffffffffffffffffffffffff8203610b2457610b23610a18565b5b60018201905091905056fea2646970667358221220fe0dac0283658ee1c26118938e61e7d07cd81e99477ea812c83733ebdd7bec5b64736f6c63430008130033",
  "linkReferences": {},
  "deployedLinkReferences": {}
}